S0220000626F6F746C6F616465722D756172742D786D6F64656D5F424732322E733337BB
S113000008100020410100008D2400000B26000090
S11300108D2400008D2400008D2400008D24000018
S11300208D2400008D2400008C3300008D240000FA
S11300308D2400003C3300008D2400008D2400003A
S11300408D2400008D2400008D2400008D240000E8
S11300508D2400008D2400008D2400008D240000D8
S11300608D2400008D2400008D2400008D240000C8
S11300708D2400008D2400008D2400008D240000B8
S11300808D2400008D2400008D2400008D240000A8
S11300908D2400008D2400008D2400008D24000098
S11300A08D2400008D2400008D2400008D24000088
S11300B08D2400008D2400008D2400008D24000078
S11300C08D2400008D2400008D2400008D24000068
S11300D08D2400008D2400008D2400008D24000058
S11300E08D2400008D2400008D2400008D24000048
S11300F08D2400008D2400008D2400008D24000038
S11301008D2400008D2400008D2400008D24000027
S11301108D2400008D2400008D2400008D24000017
S11301208D2400008D2400008D2400008D24000007
S11301308D2400008D2400008D2400008D240000F7
S113014008B50D4B83F30A880C4B09A1D1E90001D2
S1130150C3E9000100F090F800F036FC00F07EF8EE
S113016000F056F800F068F800F0E0FBAFF3008010
S1130170A5EDF5FEA5EDF5FE080000200810002011
S11301800348044B834202D0034B03B11847704722
S1130190641300206413002000000000064B07498C
S11301A0C91A891048BF0131491003D0044B0BB15F
S11301B001481847704700BF6413002064130020EF
S11301C00000000010B5064C237843B9FFF7D8FFB0
S11301D0044B13B10448AFF300800123237010BD16
S11301E07E10002000000000F435000008B5054B27
S11301F01BB105490548AFF30080BDE80840FFF78F
S1130200CDBF00BF0000000010100020F435000036
S1130210064B0748DA1C121AC11E22F00302994247
S113022088BF0022034902F0FEBF00BF6413002010
S11302300413002000360000064B0748DA1C121A8B
S1130240C11E22F00302994288BF0022002102F05D
S1130250E2BF00BF04130020101000200348044A2A
S11302600449121A921002F012B900BF40010000B2
S11302704001000004130020044B054A9A60D3F89F
S1130280882042F47002C3F88820704700ED00E033
S1130290000000000023024A1370024A13707047E2
S11302A0801000207F10002038B503780446042B0A
S11302B00D463FD009D8012B0BD0032B4FF0180368
S11302C03CD040F603102B7038BD182B36D0432B8E
S11302D0F4E7224B4278197801BB012A03D0152395
S11302E040F60410EFE71A70A3781344FF2BF6D1FD
S11302F000228021E01C02F005FB94F88320C0F367
S11303000F239A4221D194F88430C0B2834220D181
S1130310134B627800201A700623D4E7104B1B7825
S113032093420ED00133DBB29342DDD0152340F665
S11303300510C8E7062340F60710C4E740F6081086
S1130340C1E7062340F60610BDE7152340F6021068
S1130350B9E7152340F60110B5E700BF7F10002070
S1130360801000200149024800F03AB858320000D9
S11303702810002010B592B047221849684602F0B0
S113038052FF02F016F90A22C0F30363092B8CBF53
S1130390373330338DF81430C0F30343B3FBF2F139
S11303A002FB113300F00F0030338DF81730B0FB2F
S11303B0F2F302FB130001F13004303003F1300199
S11303C08DF819108DF81A000122472168468DF81E
S11303D0164000F01DFD002012B010BD6832000070
S11303E02DE9F04F0024ADF51D7D4FF494720646BF
S11303F0884652A821468DF80B4002F00CFF214696
S1130400482204A802F007FF2146682216A802F039
S113041002FF3C2700F0A6FB01254FF0FF34DFF874
S11304202093DFF820A3DFF820B36B1E052B09D837
S1130430DFE813F00C001E0041005B005401C00013
S11304400425F2E7FFF796FF0125EEE74FF47A71F2
S113045003A802F04CF938B99DF80C30312B05D0C3
S1130460322B0CBF052500253C27DEE70225FBE7E0
S113047001221121AF4800F0CBFC2C220021304690
S113048002F0C9FE202316AA04A952A800F06EFEA9
S11304900025FF23012105207370758000F088FB7F
S11304A000F002FD18B10121284600F073FDFFF7AA
S11304B0F1FE0325B9E7432001F0F9FF00214FF4D1
S11304C07A7000F075FB00F0EFFC18B900F096FBB1
S11304D00028F8D000F0E8FC0028B1D1013FA4D1F5
S11304E0182001F0E4FF00259FE7002185220DF18B
S11304F0C10002F090FE002140F6B83000F058FB35
S113050000F0D2FC88B34FF47A730093012303AA5A
S113051019460DF1C10000F0EBFC9DF8C130012B30
S11305200DD140F6B832842100920DF1C20003AA25
S113053000F0DEFC039B0446842B1AD1D8B90DF1DC
S11305400B010DF1C100FFF7AFFE40F6071398420F
S113055004461AD1B378A3B1F37893B106259DF874
S11305600B00182808BF062508E000F047FB002808
S1130570C6D040F2047415208DF80B0001F097FFEB
S113058053E718238DF80B30E8E70028E7D19DF8EE
S1130590C130012BE3D180233146CDF8008031AA4C
S11305A052A800F01DFE04460028D8D018238DF868
S11305B00B30D4E70121002000F0ECFC01210A20DB
S11305C000F0F6FA9DF80B300122062B08D140F614
S11305D007139C4204D11B21574800F019FC82E701
S11305E01A21504600F014FCA4F51063B3F5E06F33
S11305F04FF0010213D21121504800F009FC40F6DB
S113060006139C4213DCB4F5106F10D0A4F6021349
S1130610042B4FD8DFE803F050484C52540010210B
S1130620584600F0F5FB40F606139C421ADC9DF890
S11306300B309F2B4FEA13108CBF3730303000F053
S11306401FFC9DF80B0000F00F0009288CBF373009
S1130650303000F015FC0D2000F012FC0A2000F0F0
S11306600FFC40E7A4F58053013B092BDFD8A4F528
S11306708053013B092BDAD801A252F823F000BFC2
S1130680D50600002F0600002F060000D906000042
S1130690C9060000D1060000D5060000CD06000002
S11306A0C5060000D506000021238DF80B30BEE7F7
S11306B02223FAE72323F8E72423F6E72523F4E7A4
S11306C02723F2E74123F0E74323EEE74423ECE753
S11306D04523EAE74F23E8E75023E6E7B37823B35B
S11306E0F37813B333785A070AD5B06A01F06CFF74
S11306F000283FF4F8AE4FF4004000F0EFF8F2E6C3
S11307009B070DD5756801F054FF854204D94FF459
S11307100040716A00F0BAF80122132148465CE7F0
S113072040F2012000F0BEF9F6E740F2032000F0A9
S1130730B9F9D8E618330000FD320000D2320000C7
S1130740AF320000E3320000C2320000F0B5421EB6
S1130750D11C034685B018D86E460D4C04F1100721
S1130760354620686168083403C5BC422E46F7D17B
S113077004A90F3311F8014D12F8010F844204D17A
S11307809A42F7D1012005B0F0BD0020FBE700BF7D
S113079029330000F0B50368044603F16043B3F560
S11307A0004F4FF000009FB029D8826A6368166931
S11307B09E4224D8B3F5002F21D8656B06F140037F
S11307C0AB425ED8B5F5002F5BD82846FFF7BEFFD5
S11307D0002856D0284601F0D2FE80B16B6973B16F
S11307E0022B0ED1AB69C4F1040119444FF0FF325E
S11307F0204601F03FF8244BC31A584258411FB019
S1130800F0BD40F2046328460293FFF79FFF08B946
S11308100020F4E700235F6B3846FFF797FF0028BA
S1130820F6D0A6F150039F42F2D8284603A901F05E
S1130830ADFE0028ECD0039DAE42E9D8AC42E7D827
S1130840B5F5002FE4D804A801F0D0F821462A1BFE
S113085004A802F075F804A802F074F801F0DAF8BC
S1130860044601F0DBF823460090294605F12002F6
S113087004A801F041F802900298B0FA80F040090F
S1130880BDE70120BBE700BFE320BBDE30B54FF07E
S1130890FF3289B005460C4600F0ECFF0D4B984240
S11308A015D140F2022000F0F1F81C22002101A829
S11308B002F0B1FC084B29466846009302F0FFF8A9
S11308C06846211F02F0FBF8684601F099FA0020FF
S11308D009B030BDE320BBDE0100064310B5044679
S11308E088B040F2022000F0D1F81C22002101A8B7
S11308F002F091FC054B21466846009302F0DFF8B4
S1130900684601F07DFA002008B010BD00000343E2
S113091040B139B100230B60034B03600B6843F40F
S113092080430B60704700BF1424004010B501F0F1
S113093049FA01280DD1214B04205A6E4FF480232B
S11309401F494B6601F51041086250035CBF1D4A04
S113095053664FF04023D3F88420110606D44FF495
S113096000621A67D3F88420D206FBD401F03FFE5C
S113097000F076F801F096FD01F096FD18B14FF401
S1130980017000F08FF8FFF7EDFC044601F08EFDD6
S113099034B940F2012000F085F84FF4017009E009
S11309A040F203739C42F4D0A4F20574012CF4D8F1
S11309B040F2032000F076F8002010BD00800040D3
S11309C00090004000A00040012307B58DF80630D8
S11309D08DF807304FF04023D3F894305A060AD5E7
S11309E000F074F8A0F2022080B2072803D8C923CB
S11309F0C340DB0702D400F035FB20B100238DF89F
S1130A0006308DF807304FF4C0435B68013308D1DA
S1130A104FF4027000F03AF800238DF806308DF898
S1130A2007309DF8073063B14FF4C040FFF7B2FEC2
S1130A308DF806009DF806301BB94FF4027000F0E3
S1130A4025F89DF806302BB14FF4C040034B986055
S1130A5001F0D1FD03B05DF804FB00BF00ED00E040
S1130A604CF23C32014B5A80704700BF000000201A
S1130A704AF6C030044B5B8823F00F039BB21B1A69
S1130A8058425841704700BF00000020044A08B58E
S1130A901080FFF7EDFF10B94FF20F03538008BD2C
S1130AA00000002008B5FFF7F1FFBFF34F8F0549A1
S1130AB0054BCA6802F4E0621343CB60BFF34F8F67
S1130AC000BFFDE700ED00E00400FA054FF20F015E
S1130AD0084B5A888A4201D1188870473AB91B8852
S1130AE040F20220012B18BF4FF4007070474FF4FE
S1130AF000707047000000204FF4003208B5044B2A
S1130B009A6601F0C7F8B0FA80F0400908BD00BF4A
S1130B1000900040072BF8B506460F4614461D46C4
S1130B2001D90020F8BD0121202001F029F801217C
S1130B30212001F025F88CB144EA06039B07F0D18B
S1130B404FF40032064B31469A66284623463A460D
S1130B5001F0CAF8B0FA80F04009E3E70120E1E7C8
S1130B60009000401FB510220E4B5A6600F030FA78
S1130B704FF47A23B0FBF3F00B4B0F2218600021E3
S1130B800DF1010002F047FB01238DF8003040F223
S1130B90FF3369460548ADF8023001F053FF05B054
S1130BA05DF804FB009000405410002000800440D5
S1130BB030B50D4D0D4A2D68536A15FB00F515FA35
S1130BC083F09CB280B2A0422CBF00240124084BC5
S1130BD01880084B1C7011B1536A8342FCD1012365
S1130BE005494B61936130BD5410002000800440DE
S1130BF07C1000208110002000A00440094B0A4A08
S1130C005869127800F001000AB108B9704738B980
S1130C10586A064B1B88984234BF00200120704755
S1130C200120704700800440811000207C100020C7
S1130C302DE9F84FDFF8A0815B4BD8F800205B4E1C
S1130C409A425B4F07D12923C8F80430594B3360CB
S1130C504FF4A0233B60584B02F13C01DFF87C9138
S1130C60996002F12403C9F82430C9F804304FF024
S1130C708063DFF86CA14FF0010BCAF864304FF4C5
S1130C800073CAF8643002F58053C3F804B040F628
S1130C90AA630024536141F20503484D484802F514
S1130CA000519460D465D3601461D461D4648864C1
S1130CB0C5F83C46C5F85446C5F84C46C5F8444604
S1130CC0C5F84846D3609368936000F081F93D4BC2
S1130CD04FF4E1121B6F0521C3F380235B44B0FB87
S1130CE0F3F303F5E1435B01B3FBF2F3364A203B34
S1130CF002EAC303D8F800202046D3615B460422ED
S1130D0000F05EFF20465B465A46062100F058FF7D
S1130D101423C5F83C364FF4A0230422C5F85436F6
S1130D204FF4C02311465846C5F84C365B4600F0D4
S1130D3047FF0522D8F8003003215A614FF0F052E2
S1130D40224BCAF86410C3F804B09A605C629C63D6
S1130D501C645C653A681E4802607A7B1A66FA7AFB
S1130D60BC7A120542EA04423C7B42EA4452DA6508
S1130D70C3F8709032684260727BC3F89020F27AB4
S1130D80B07A120542EA0042307B42EA4052C3F88C
S1130D908C20104A51630222C3F848B003F58053F3
S1130DA01A61BDE8F88F00BF0000064068100020FB
S1130DB058100020020005004413002000C0034026
S1130DC0FFFF010000800040F8FF7F0000000440A6
S1130DD00040044000200440541300200413002069
S1130DE000900040084B586B10F0020006D002221D
S1130DF09A6203F5005301205A637047DB6A9B072C
S1130E00FBD40222014BF6E700000440002004401A
S1130E1070B54E1E7E2E0446154622D8FFF7E2FF1B
S1130E2010B32046124B214410F8012B884203F8DA
S1130E30012BF9D10F4B1A8866F30E121A800E4A51
S1130E40C2F8A030022393640DB9002070BDFFF7EF
S1130E50C9FF0028FBD0094B1A6893699B06FCD58F
S1130E60F3E741F20310F1E741F20620EEE700BF99
S1130E70821000204413002000000440541300207A
S1130E80014608B5FFF7AEFF0028FBD0054B1B68F1
S1130E909A695006FCD5D9639A699206FCD500205C
S1130EA008BD00BF541300200E4A0F4B106840F2D7
S1130EB00112DB6E934205D190B10023C0F500709E
S1130EC01844704740F2022293420EBF4FF48073DD
S1130ED0064A9B1A984202D0F0D2181A7047002092
S1130EE0704700BF78100020000004400211002069
S1130EF02DE9F843089D04460E461746F3B9FFF75B
S1130F00D3FFB04228BF304600214FF001084FF014
S1130F1002091D4A054604EB000C1368DFF870E073
S1130F201A4864451CD101B1136007B13D6041F218
S1130F300420AE4298BF0020BDE8F8832DB1FFF72E
S1130F4011FE00212846FFF733FEFFF7ADFFB04244
S1130F50D5D2002DF9D0FFF751FE0028F5D0CEE709
S1130F601EF803100133B3F5007F04F8011B04D10C
S1130F700023C0F810900121D3E7B3F5807F08BFA8
S1130F80C0F81080F7E700BF78100020001004407C
S1130F900211002010B10222094B9A6271B10122A0
S1130FA00020074B07499A624A63074919670749B2
S1130FB008609A64022203F580531A610020704786
S1130FC00000044000200440041300207810002096
S1130FD030B51C4B87B001AA03F1100514461868FC
S1130FE05968083303C4AB422246F7D11B782370F7
S1130FF0154B1B6F03F00703032B1FD04FF4802204
S1131000124B5A66124A9368C3F30443102B17D841
S113101018336B440F4913F8143C4B430E498B426D
S113102003D19268C2F30162D340074A106FC0F340
S113103003300130B3FBF0F007B030BD074BF4E7E9
S1131040074BF2E7D43300000080004000900040DA
S11310500000014040420F0000093D0000F0490239
S1131060C0EA21014FF08062164B13B55A66012382
S113107004221846022100F0A3FD00230093009BE4
S1131080632B19DD012302221846114600F098FD56
S113109000230193019BB3F5FA7F10DB0A4B002276
S11310A05C6C01230221184600F08AFD6FEA94006B
S11310B000F0010002B010BD009B0133DEE7019B8C
S11310C00133E6E70090004000C0034030B502461B
S11310D000230C25054905FB03F460180C599442C0
S11310E003D001330C2BF6D1002030BDE8330000CF
S11310F0F0B50023082787B0CDE9013315463B46F8
S1131100009704AA044601F01DFB41F20303984230
S1131110064623D194F8433053B13A46E06C04A90F
S113112001F00EFC04AA3B461146A06C01F0F7FB4B
S1131130059A049B6A6094F843202B6052B9094ACB
S1131140934207D0084A934204D00822E06C04A9D1
S113115001F0F6FB6B68236500236365304607B036
S1131160F0BD00BFF70A0AF7FC0404FC2DE9F041C6
S113117000254FF0FF3704468846164603F0200347
S113118080F842301822FF21C0E91855A0F84050D9
S113119080F84350A0F8445080F84650C0F8887056
S11311A0683002F038F888222946C4E91286C4F867
S11311B08070C4F8847004F1900002F02CF8074B9E
S11311C0C4F82071C4E9463584F8245116B1304678
S11311D000F00CFC0020BDE8F08100BF000101011B
S11311E02DE9F04FA5B09946CDE91123002304461B
S11311F00E464FF001082E9D1393139978E094F84E
S113120046300C2B70D8062B4BD908FA03F212F493
S1131210286F40F00B8212F4885F40F0B7810A2BEC
S113122066D1DFF8B4A3636D072B00F228814FF079
S1131230080B382316AA2046CDE90188CDF800B062
S113124011A901F07FFA41F203030A900A9A9A4223
S113125000F03F810A9B5BE0A3F10E02052A00F235
S11312608F82DFE812F001030600F5003202320239
S1131270FF020027636D0F2B00F28A80102314AA4B
S1131280009320464023CDE9018711A901F05AFAC1
S113129041F203030890089A9A4200F0CB80089B1D
S11312A036E0013B052B27D8DFE813F074006E000D
S11312B00600C001DC0078010127636D072B00F2F2
S11312C0DE80082314AA009320464023CDE9017749
S11312D011A901F037FA41F203030B900B9A9A42D9
S11312E000F021810B9B13E0A3F10D02062AB3D970
S11312F0494584D3002065E014AA204611A9FFF7CC
S1131300F7FE41F203020590059B934208D0059B2A
S1131310049341F20303049A9A423FF46EAF50E0FF
S1131320159A1499226500226265A94A914240F0F7
S11313300581022284F84620EAE7082314AA0093D0
S113134020464023CDE9018711A901F0FBF941F2C0
S113135003030690069A9A4201D0069BD8E7149B91
S113136003F07F43B3F1407F05D0132384F8463064
S113137041F20903CCE7159BD90706D594F842300E
S113138043F0010384F842300027636D072BD4D95E
S1131390012300E1204614AA11A9FFF7A9FE41F296
S11313A003030790079F9F420FD0079F41F2030357
S11313B00497049A9A423FF420AF049B0BB1002394
S11313C0F370049825B0BDE8F08F1498FFF77EFE03
S11313D028B9132341F2080784F84630E6E7437935
S11313E094F824219A4205D9132341F20E0784F874
S11313F04630DBE7026877498A4205D00289D20782
S113140048BF013384F8243194F84230D9070DD50C
S1131410028994F84330920706D53BB1132341F275
S1131420010784F84630C1E7002BF7D0037984F82C
S11314304630BBE7D4F848A000F0F4FA8023022138
S1131440CDE9000315AA0123504600F02BFA11E759
S1131450226D0123A265002284F84330E26584F8FA
S11314604630CAE600213C2215A81491012701F058
S1131470D2FED4E91432934204D884F8467041F27F
S1131480030345E7009314AA40232046CDE90177DE
S113149011A901F057F941F203030990099A9A42FC
S11314A001D0099B34E70DF1500C06F108030DF14E
S11314B0680E624603CA724518605960944603F187
S11314C00803F6D110681860337843F001033370D1
S11314D0CFE7337843F004033370179BB362737818
S11314E05F071CD50020236DCDF850A0C4F88430CC
S11314F094F84530606643F0020384F84530EF68A1
S11315006FB104222B6814A9B847606E2B685A4641
S1131510EF6816A90830B847636E103363660B236F
S113152084F846307FE63378159A43F0020333702B
S1131530149B7360236D083B73622AB1132384F8F0
S1131540463041F20103E3E6042384F8463094F87C
S11315504530626643F0010384F84530ADE6042368
S113156014AA009320464023CDE9017711A901F084
S1131570E9F841F203030C900C9A9A4201D00C9BB7
S1131580C6E6226D149B042A01D923660127636DE4
S1131590032BE4D9092384F8463070E700236366FB
S11315A007235CE79F4251D89F4228BF1F46402330
S11315B014AA2046CDE90188009711A901F0C2F8C8
S11315C041F203030D900D9A9A4210D00D9B9FE6B1
S11315D0EB17A603F90707F9EB17A65E402F28BF00
S11315E040279F4228BF1F4627F00307DFE794F8F0
S11315F046B0BBF1070F2FD0042FC7F1040A88BFF0
S11316004FF0000A14AB5246FF21D81901F003FE33
S1131610BBF1090FBA442DD12B465246204614A9DA
S113162001F011F90D900D9B002BCFD1D4E9147367
S11316309F427FF6ADAEFF1ADDE912329B1A94F891
S11316404020032F1344ADD9032BC7D8204611A93A
S113165001F057F800235BE6D5F808A0BAF1000FB3
S1131660CAD02B683A46606E14A9D047636E3B44D7
S11316706366DBE7BBF1040F1DD173789807D5D5FA
S1131680EB68002BD2D0626E042A0BD80AEB02035B
S1131690062B07D915AB9B1A1A68C4F884204FF09F
S11316A0FF321A60EF682B685246606E14A9B8477F
S11316B0636E5344DCE7BBF10B0FB7D17378590762
S11316C0B4D5EF68002FEED1B0E700218A6A496BE8
S11316D01269503A91423FF634AF112B0FD194F86E
S11316E01831002B7FF454AE41F206030E930E9A88
S11316F09A4202D1132384F846300E9B08E694F8EC
S11317004430002B7FF444AECDE90133402314AAC6
S11317100093204611A901F015F841F203030E903D
S11317200E9A9A42E9D1E06C01F00CF994F8183160
S1131730A3B104F1B4030093E06C04F194031CAA74
S113174014A900F0D9F80E900E9BA3B10023F370F6
S1131750132384F8463041F20603D9E5D4F84CA0AB
S113176000F058F9074600F059F93B4600901CAACE
S1131770504614A9E5E70123F37084F8443007E6E2
S113178000234FF00408CDE9013314AA4023204676
S1131790CDF8008011A900F0D5FF41F203030F90AA
S11317A00F9A9A4202D00F9B04930AE6D4F8882039
S11317B02F4B9A4205D0132384F8463041F2050397
S11317C0F2E70123F37094F84530DA0707D5EF68A0
S11317D02FB1424640462B6804F18401B84794F87F
S11317E045309B0707D5EF682FB104222B681046BC
S11317F004F18401B847236E6BB36F685FB34FF095
S1131800FF3304F180080422414610A8109301F02C
S1131810F2FC28B10422414648F204002B68B84780
S113182004F168090422494610A801F0E4FC90B1CF
S113183000239B6A1422D3F8108004F16C0108F190
S11318400800D5E90037B847D5E9003704224946EE
S113185008EB0200B8470123B3700E2384F8463026
S11318600023A1E70023F37041F20700AAE500BFBB
S1131870E320BBDE30B50824094B00255C66012457
S113188003F5FE235C6001449D601A61DC608842BC
S113189001D1586A30BD10F8012B1A62F7E700BF76
S11318A000900040F8B516464FF400521D46114B07
S11318B004469A660222C3F860220F4601F01BF91F
S11318C0DDE90612204601F01AF9002384F8387085
S11318D063623368C4F839307368C4F83D30B36860
S11318E0C4F841302B0C6DBA84F84530A4F8465046
S11318F0F8BD00BF009000402DE9F041B0B014469F
S11319000D461A460646369B002867D0002965D046
S1131910002C63D0002A61D0002B5FD006214FF445
S1131920005006912F4920AF88660320C1F8600259
S11319300021BE4609910C910F9105F12008F4464F
S1131940286869680835ACE803004545E646F6D1E1
S11319500DF1A00C04F1200E65462068616808347E
S113196003C57445AC46F7D10DF1400C654602F150
S1131970200E2C4610685168083203C4724525466F
S1131980F7D118AC03F120052246186859680833CA
S113199003C2AB421446F7D14023CDE90A7308933E
S11319A020230AAA0E9303AB07CACDF81CC00D96D8
S11319B083E8070007AB93E807008DE807000DAB49
S11319C00ECB094801F051FB0690069B40F20460DF
S11319D0002B08BF002030B0BDE8F08140F2016068
S11319E0F9E700BF00900040103500004FF40052AA
S11319F0074B10B59A6602220446C3F8602200F031
S1131A00A4FF2046BDE81040002100F0A2BF00BFA3
S1131A1000900040004870474CE3070000487047BE
S1131A206CE307000048704786E207002DE9F3479E
S1131A301446DDE90A920D461F4600284DD14CB3E9
S1131A4013683F2B2AD8516851B32549002F14BF7E
S1131A50B846884603F03F061B19136022BF53683B
S1131A6001335360FEB93F2C0ED9A3092A460093D3
S1131A7041463B46002000F085FF24F03F031D440F
S1131A8004F03F0434B100262246294609EB06003F
S1131A9001F0C9FB002002B0BDE8F087B846D9E7E1
S1131AA0DFF83C80D6E7C6F1400A5445ECD329461A
S1131AB0524609EB060001F0B6FB012326440093CD
S1131AC04A463B4641460020A6F1400400F05AFF36
S1131AD03F2C5544D6D9B846C7E70248DBE700BFD8
S1131AE0B834000080AFFFFF2DE9F04117461468B9
S1131AF086B01E46E3008DF80F3063098DF80E3072
S1131B00630B8DF80D30630D8DF80C30536805466A
S1131B10DA0002EB54728DF80B2004F03F045A09EA
S1131B20372C8DF80A204FEA53324FEA53538DF87D
S1131B300920884694BFC4F13802C4F17802CDE983
S1131B4000178DF808300D4903460020FFF76EFF9B
S1131B5008222B460020CDE900870DEB0201FFF798
S1131B6065FF284605F1200350F8042B984246F8F7
S1131B70042BF9D1002006B0BDE8F08178340000D0
S1131B80420910B50FD0012A0FD00A4B0A4C022A81
S1131B9018BF234600F01F0049B103F5805301220A
S1131BA082401A6010BD1346F4E7044BF2E703F5D4
S1131BB00053F4E768800040608200406480004085
S1131BC0F8B504460D461F4616464AB101238B401C
S1131BD03021184A01FB0022F7B141F210015350A1
S1131BE004EB4403072D4FF00F014FEA031316D8FB
S1131BF0A80006FA00F281400F48184400F00CFFD8
S1131C004EB9012330210B4AAB4001FB042277B1CA
S1131C1041F210015350F8BD42F21001DFE7A5F183
S1131C200800800006FA00F281400448E5E742F229
S1131C301001EFE700C0034004C003400CC00340A0
S1131C40F0B5114A114C124E00F00105E3695F072B
S1131C5013D40DB9334213D103EA00078F4207D1DD
S1131C600B4A1A40002A0CBF00206FF00100F0BD9F
S1131C70013AEBD16FF00200F9E74FF0FF30F6E7DD
S1131C806FF00100F3E700BF809698000000034066
S1131C90020001004FF4003238B50F4B0F4C9A6626
S1131CA041F671330122E569E3630D4B0021DA60EB
S1131CB0022360612120236105F48035FFF7C0FF12
S1131CC010B92120FFF7BCFF0122064BDA600DB1E9
S1131CD00023E36338BD00BF0090004000000340D0
S1131CE000100340002003402DE9F04F01274FF47A
S1131CF0402530262C4CDFF8BCC0DFF8BCE0CCF823
S1131D00047044F8205000244FF4003506FB00E62C
S1131D10F46534663467254CDFF8A090A56641F677
S1131D20713504F51C34D4F81C80E563E568DFF8EC
S1131D3090A03D43E56007FA00F04BB9E26818F45F
S1131D40803F22F00102E26029D10020BDE8F08F3B
S1131D5001F5005505EA09056D1A9D4228BF1D4687
S1131D606161D4F81CB0AF081BF0040F19D1013F16
S1131D703F0147F060577766B266C6F86CA0CCF8AE
S1131D802400DEF834703842FBD0094F29447863CC
S1131D900427CCF828002A4427615B1BCDE7E363C2
S1131DA0D3E74FF0FF30D1E70040044000900040FB
S1131DB000200440001004400000044000E0FFFF45
S1131DC018000340024B1868C0F30740704700BF77
S1131DD00080E00F074B08495A6E4FF48033D2035A
S1131DE058BF064A4B6601F5E621D1F8040658BFF0
S1131DF053667047008000400090004000A00040FF
S1131E00F8B5C3690446042B66D800F0FEFD4FF410
S1131E108032324B3249586E03F580535A66314D45
S1131E20314BC003C1F80036C1F804565CBFA1F5BC
S1131E30E4214A662D4AE5691A6022685A602C4AF0
S1131E4004F1080303EB8501121B8B4202EB030030
S1131E501FD1294600206368264CF3B9224A40EA80
S1131E6005609060136850689268434053400022B4
S1131E7091422CD144F82130BFF34F8F1E491F4BA0
S1131E80CA6802F4E0621343CB60BFF34F8F00BF14
S1131E90FDE753F8046F0660D7E70022D3F800E0AB
S1131EA004EB81079E68BC46C6F39906964207F187
S1131EB0040706D8104411445A68012ACED05B683E
S1131EC0CBE75EF822600132CCF80060EAE754F810
S1131ED0220001324340CBE7F8BD00BF0080004040
S1131EE000C00740004E00A0004C00A0DEC0ECE59E
S1131EF0044C00A00C4C00A000ED00E00400FA0526
S1131F0010B5FFF767FF00F1C043A3F58043B3F5B5
S1131F10606F17D802680C4B9A4213D103690533DA
S1131F20B3F5007F0ED2002211469A4205D350F831
S1131F302300431A5842584110BD50F82240013240
S1131F406140F2E70020F7E7DEC0ECE54FF4005211
S1131F50034B00209A660322C3F86022704700BF37
S1131F60009000404FF40052034B00209A66032275
S1131F70C3F86022704700BF00A0004060B505466A
S1131F8019B10139B1F5806F0FD2094EF06810F420
S1131F908030FBD143EA012312072B4302F0805225
S1131FA0134343F00043736060BD0120FCE700BFAE
S1131FB00020024C0122054B9A60DA68D203FCD45B
S1131FC0D86820F00F000004000C70470020024C79
S1131FD00322024B186019615A6370470000024CD7
S1131FE082B01FB507930A9B04AC8B4228BF0B46F3
S1131FF004E907001048D100079948BF0333016082
S1132000099948BF23F0030323F0704301F0E04132
S1132010194341F000518160002102F0E042019C2B
S11320201A4342F00052C16004618261416304B00A
S1132030BDE8104002B070470000024C3F22034B41
S11320401A631022DA6103229A6370470000024C7B
S1132050024AD36B9B07FCD4704700BF0000024CBC
S1132060044B9B6A13F0240F14BF0120002080004E
S1132070704700BF0000024C08B5FFF7F1FF064BA4
S1132080DB6B23F47F4323F0EF0303431EBF0122E2
S1132090024BC3F8FC2F08BD0000024C00F0FF3FC8
S11320A04368182B0AD0202B1DD0102B2BD1174B93
S11320B0D3F80434DB010AD401207047134BD3F85E
S11320C004349A01F8D50B6843F008030B600368E5
S11320D00F4A934210D10B6843F040030B60002376
S11320E0436000207047094BD3F804345B01E3D507
S11320F00B6843F00403E9E7064A9342F1D10B6805
S113210043F08003EAE70720704700BF0000024C59
S113211003130020021300200B4607B50749D1F82A
S11321200414C90708D5002100920246084600F0AD
S113213033F803B05DF804FB0120FAE70000024C19
S11321400B4607B50749D1F80414C90708D500920E
S113215001210246002000F01FF803B05DF804FBE3
S11321600120FAE70000024C1FB50A4CD4F80444DD
S113217064070CD5CDE900120021069C0222CDE9AA
S113218002340346084600F031F804B010BD0120C3
S1132190FBE700BF0000024CF0B51C465B68154627
S11321A08DB01A07129E1AD1CBB17268934216D120
S11321B00C4B0D4A53F8217009AB07CA83E807009A
S11321C01A462946CDE90533CDE90333CDE9016348
S11321D0009447F4807000F072FE0DB0F0BD07204B
S11321E0FBE700BF08350000D83400002DE9F041BA
S11321F08CB0DDE9127C7C681E46DDE9143E2007C4
S113220028D13CB3DCF80400844223D15868102858
S113221020D1DEF8040010281CD10F4809AC50F876
S113222021500E4951F822800D4A07CA84E807005C
S113223045EA080022463146CDE9054ECDE903447E
S1132240CDE901C4009740F0300000F038FE0CB036
S1132250BDE8F0810720FAE708350000E434000007
S1132260D83400000138C0B206289ABF014B185C6C
S113227000207047EB3500000138C0B206289ABF31
S1132280014B185C00207047E43500002DE9F04F45
S1132290BBB0804603A880E80E001E467A4B174662
S11322A0D3F800248A46D4069DF8109103D4012063
S11322B03BB0BDE8F08F08F1FF32062A6DD8DFE8A5
S11322C002F004191F252B313700D3F80C34D8073A
S11322D0EDD5012307930023B9F1010FCDE90833AC
S11322E02CD0B9F1020F5AD04046FFF7C5FF632442
S11322F0054631E0D3F80C349907D8D50223E9E731
S1132300D3F80C345A07D2D50423E3E7D3F80C34BA
S11323101B07CCD50823DDE7D3F80C34DD06C6D57E
S11323201023D7E7D3F80C349C06C0D52023D1E77B
S1132330D3F80C345806BAD54023CBE7524BD3F824
S11323400C34D903B3D5079B404643F4C0630793C9
S1132350FFF788FF0324054613230422009307A9EB
S11323604FF0005312A800F068FD5146009446F067
S113237000533A4600F061FD4FF0000B04465E4600
S1132380DDF814A1469B9B452CD1B9F1030F42D132
S11323904046FFF771FFB84237D0072088E73A4B31
S11323A0D3F80C24D20382D5D3F80C349B037FF5E5
S11323B07EAF97B17C423946374604F00304079B4D
S11323C0404643F4E0630793FFF74CFF24023E4684
S11323D005460F4644F0A304BEE704210DF1200A8C
S11323E00C46ECE7DAF8042016444AB103230093C0
S11323F02046DAF80830DAF8001000F01EFD044632
S11324000BF1010B0AF10C0ABCE7404600F077FE21
S113241001383042C1D17EBB0323324620460093AB
S113242008A9334600F009FD04260446103C204662
S113243000F018FD2046314600F01FFD489BAB42DA
S113244028BF2B461C46EBB1002322460093479934
S1132450499B0AA800F0F1FC2A1B04D0002319466A
S1132460009300F0EAFC103800F0FCFC12A80AA962
S113247000F0D8FC00201BE716F0030618BFC6F1D5
S11324800406D3E70AA8E7E70000024CFEE710B50C
S11324903AB1002350F8234041F8234001339A42D3
S11324A0F8D110BD00F012B8FDF764BF704710B545
S11324B00446FEF7E5FC182C07D12046FEF7E0FCA5
S11324C02046BDE81040FEF7DBBC10BDFEF7B0BBF4
S11324D0C0F30C032DE9F04105460F4616460BB92F
S11324E0FEF70AFB05F5005424F4FF5424F01F04FE
S11324F005EB0608A04507D8324639462846BDE80C
S1132500F0410223FEF706BB2046FEF7F5FA04F578
S11325100054EFE770B40025AD6A03462E69864285
S113252006D86C6913449C4202D370BCFFF7D0BF39
S113253070BC704737B500F5004310F5004F0D46E9
S11325401446019319D2019BB3F5FC2F15D2019BBC
S1132550C3F5FC23934210D338B9836A5A69B2F5A0
S1132560004F02D91869FEF7C7FA22462946019896
S113257003B0BDE83040FFF7ABBF03B030BD036923
S113258013F0FE0F0CBF01200020704738B504463D
S11325900D46FEF7DBF838B16369012B07D12046FD
S11325A0FFF7EDFF10B1A46901202C6038BD0020B5
S11325B0FCE700239B6A9868704708B500F088FA26
S11325C0B0FA80F0400908BD4FF0FF3313B504465C
S11325D001A80193FFF7F1FF20B1019BA3422CBF97
S11325E00020012002B010BD4FF4004070470020CD
S11325F070470020704703461846016881F3088835
S113260081F3098840688746FEE74FF40170FEF7BE
S113261049BAB1F5057F10B504460FD34FF40572DE
S1132620002100F0F8FD04F5CE7204F5AA7104F15E
S11326302C000023BDE81040FEF798BD40F20520B1
S113264010BD13B50446009101462C30FEF7C8FDB9
S1132650C4F8100218B141F20703984204D1A378D8
S113266023B1E07800F2022002B010BD40F2012054
S1132670FAE72DE9F04387B00DF1080904460E4648
S113268017460021102248461D46DDF8388000F028
S1132690C2FD00211C22C8F80010284600F0BBFD32
S11326A032463B462146CDF8009004F12C00FEF75B
S11326B097FD23789A0744BF6268C8F80020DB07B7
S11326C009D504F1080304F1240253F8041B9342CE
S11326D045F8041BF9D1237840F20640002B18BFBB
S11326E0002007B0BDE8F0834FF405707047012364
S11326F007B5002200911946FEF7FAFB03B05DF816
S113270004FB70B5D1E90152AA4205D290F84030D9
S11327102B449B1A402B10D9002012E00A6890F831
S11327204040D65C90F841200133224402F03F023D
S1132730013486548B6080F840408B689D42EDD80C
S1132740012070BD2DE9F84390F840C017469E461D
S1132750D1E90123089DD21A6244954204460E46EB
S11327609DF824909DF828800AD9FFF7CAFF002815
S113277067D1132341F2020084F84630BDE8F883A0
S1132780754555D8002394F840200AB19D4235D1AF
S1132790D6E90121914201D29D4241D89D424DD1B9
S11327A029463846D4F88820FFF764F8C4F888002E
S11327B0B9F1000F04D02A463946E06C00F0C0F8A5
S11327C094F84330B8F1000F06D08BB12B463A464B
S11327D03946A06C00F0A3F894F8433043B1E36D9C
S11327E0A26D2B449342E36524BF002384F8433055
S11327F0636D41F203002B446365BFE794F8412005
S1132800A25CFA5494F841200133013202F03F02F1
S113281084F8412094F84020013A84F84020B2E73B
S11328203268525CFA54B26801330132B260AFE7E5
S113283041F20100132384F846309FE741F202007D
S1132840F8E700209AE72DE9F04799465B680446CB
S11328500F469046002B40D011F0030340D19B6AF1
S1132860006E1B6981181D1DA9421BD31C3398429D
S113287018D2A842024638BF2A46994294BFC2EBF6
S1132880010AC2EB030A101A3E18C5F1680010448D
S113289031465246204400F0C6FC5246FF213046E1
S11328A000F0B9FC48F20403226E9A420CD848F2B4
S11328B0070102EB0800884206D99B1AFA58C4F8AB
S11328C080204FF0FF32FA50D9E9003542463946AC
S11328D0206EA847236E434423660020BDE8F0879A
S11328E041F20200FAE749BA89B24840C0F3031240
S11328F0424013B283EA0233580100F4FF509BB202
S11329005840704738B5044645181046AC4200D1CB
S113291038BD014614F8010BFFF7E5FFF6E730B5C3
S11329200D4685B0194600F12803CDE90152009304
S113293000F1240200F1380300F032F905B030BD93
S113294000F00CB8014600F016B86822002100F02F
S113295062BC03460020C3E90000704707B500F1DC
S113296028030190009300F108030020FFF75EF8AC
S113297003B05DF804FB02460B4600F12801083061
S1132980FFF7B2B8F0B51D4693B0002837D1189BB5
S113299006909B01CDE904230AAB0A461E4601F1C9
S11329A020071C4610685168083203C4BA42234603
S11329B0F7D1002307960993FFF7C8FA0446D8B95C
S11329C02023089304AB93E807008DE8070007ABC6
S11329D004200ECB00F0A4FB0746FFF7C3FA8FB91F
S11329E02B46324612AE154603CDB54218605960E7
S11329F02A4603F10803F6D1204613B0F0BD6FF068
S1132A007104F9E76FF06F04F6E7EFF3108072B624
S1132A10704700B962B6704770B5054614460E4655
S1132A20FFF7F3FF2B685C4034405C402C60BDE84A
S1132A307040FFF7EEBF036BDA0702D503695B064C
S1132A40F9D4704710B5FFF7F6FF0122044600F5EC
S1132A5000531A630B7948881B0243EA8043887A3F
S1132A600343487843EA8013C87A43EAC013087BD7
S1132A7043EA4013487B43EA0013887B43EAC003DC
S1132A80C87B43EAC023887943EA0043C87943EA10
S1132A904043636004F580531A630A780AB9022339
S1132AA0E360002363624B79087A1B01497A43EAA5
S1132AB080030B43A3600AB10123E36010BDC36923
S1132AC0032B9FBF00EB83020133D160C3617047C6
S1132AD038B50446FFF77EF9054634B1FFF710FA1E
S1132AE030B100206B68236038BD4FF4E020FBE771
S1132AF04FF47E00F8E72422002100F08CBB70B56F
S1132B0015460E4624220021044600F084FB25F0DD
S1132B104003802B02D0B5F5807F08D12046314692
S1132B2040F8045BEA0800F07EFB002070BD6FF003
S1132B301F00FBE730B501290D468BB02AD8046885
S1132B4024F04001802902D0B4F5807F25D10021F2
S1132B50CDE9031210220430E408CDE90521CDE9C2
S1132B600732019002940991FFF7F0F968B9012D39
S1132B7007AA04A901A80AD1FFF7CEFA0446FFF771
S1132B80F1F9204318BF6FF06F000BB030BDFFF7B1
S1132B90D7FAF3E76FF02000F7E76FF07100F4E77E
S1132BA02DE9F04F91B082460F4698461646DDF85F
S1132BB06CB0FAB11568DAF8003023F04002802ACC
S1132BC002D0B3F5807F6ED10024DB080593102377
S1132BD0CDE90648CDE908340AF104020BEB0703FA
S1132BE004920293BC4207D306B13560002011B0B1
S1132BF0BDE8F08F1546DEE75DB11A9A1BF8043084
S1132C00525D013553401C9A05F00F0513550134EC
S1132C10E8E7A7EB0409B9F10F0F1DD929F00F0953
S1132C200BEB0403CDE90A391C9B0C952344CDE935
S1132C300D390F95FFF78AF90028D8D107AB009317
S1132C400DAA0AA904A8FFF78FFA0390FFF78AF9DF
S1132C50039B03432AD14C441C9B0BEB04091C44E7
S1132C60029B4B4501D13C46BCE78DB9424601214C
S1132C7050461A9BFFF75EFF0028B8D108F11002F6
S1132C8012F8013D0133DBB213700BB94245F7D1A1
S1132C901A9A19F8013B525D0135534004F8013B7F
S1132CA005F00F05DCE76FF07100A0E76FF06F002F
S1132CB09DE713B51AB10024009400F0BEF802B0E9
S1132CC010BDF0B58DB005AC84E807001C46A142E8
S1132CD00D4628BF2546129B0DB304B31146284662
S1132CE0002603F51813CDE90A468DE8030003F224
S1132CF041135F02C5EB4323099302950CAA059B7C
S1132D0012E90700069500F025FAA54207D23146DC
S1132D10621B381B0DB0BDE8F04000F019BA0DB0CD
S1132D20F0BD30B591B001AC84E807001C461346F1
S1132D30DA0049BF029A6200033222F0030201461C
S1132D4004A8FFF7B6FF04A800F08CF814992246F3
S1132D5001F5181101F241114D0208A8C4EB4121FB
S1132D600023FFF7A6FF05F5007100232246091B87
S1132D700CA8FFF79EFF0CA800F074F808A904A89B
S1132D8000F050F811B030BD10B58CB005AC84E83B
S1132D9007000E9ADDE9060102F5181202F5A07289
S1132DA05202CDE9092300228DE803000B9202931D
S1132DB00CAA059B12E9070000F0CCF90CB010BD79
S1132DC02DE9F04B4FF00008994607461646454654
S1132DD08AB003AC84E8070002F0805B07AC049A75
S1132DE0424502D80AB0BDE8F08B139B13B9AA1E62
S1132DF0012A0AD9129BCDE90779099600955BB19E
S1132E0094E807004B46FFF75CFFBBF1000F00D1CD
S1132E104F440135C844E2E74B4694E80700FFF706
S1132E20B3FFF2E708B5FFF7D3F8FFF707F9FFF7A9
S1132E300FF9BDE80840FFF71FB910B5044622F0AA
S1132E407042103060602160A26039B1A26803F062
S1132E5070431343A360029BE36010BDA36843F077
S1132E608043F7E701234360C36843F02003C36052
S1132E70836843F0005383607047C36803F00F0313
S1132E80012B02D0033B012B08D8C36801F01F01BA
S1132E9043EA0123C36083680B448360704737B5FA
S1132EA015464A6804463AB18C680093096845EAB5
S1132EB00403FFF7C2FF0446204603B030BD2DE9EA
S1132EC0F04FD3B0CDE90123DDE95D7BDDE95FA9F6
S1132ED000230390042003ACCDE9050307C907AB25
S1132EE083E8070021461846619E0494FFF7D8F84A
S1132EF08046002840F0B3805C9A0AAB07CADBF82E
S1132F00045083E80700DAF804304C421D44D9F831
S1132F1004306D425B420093BB6805F00F05DA0094
S1132F2048BF7B6804F00F0442BF033323F003035C
S1132F307B60B368DB0041BF7368033323F0030392
S1132F4073600023DBF80400DAF80420CDE91533BC
S1132F5081182944CDE90E1379680D93494201F093
S1132F600F01CDE9103171681293494201F00F014C
S1132F70CDE91331CDE9173319935C9B5B684BB9E9
S1132F80D9F804301343184301BF1024CDE90B4092
S1132F9016AB0A9311234FF0005204A932A8FFF78D
S1132FA07EFF40F611034FF0005207A9FFF777FFA9
S1132FB042F611034FF000520299FFF770FF44F6F6
S1132FC011034FF000520199FFF769FF41230022DA
S1132FD05946FFF764FF2B024FF00052514643F06D
S1132FE04103FFF75CFF23024FF0005243F001035B
S1132FF00AA9FFF754FF009B4FF000521B0203F491
S11330007063494643F00103FFF749FF1038FFF7A7
S113301029FF00230DA91A461AA8FFF740FF002331
S113302039461A46FFF73BFF002310A91A46FFF75B
S113303036FF002331461A46FFF731FF002313A958
S11330401A46FFF72CFF002362991A46FFF727FF61
S11330501038FFF707FF1AA932A8FFF7E3FE40462E
S113306053B0BDE8F08F0069704770B586B003AE09
S1133070054686E80E00FFF7F6FF202804463AD8F6
S11330806A6800EB80039A4203D0062343439A42C2
S113309033D10B9BB3EB440F2FD10E9A93422CD117
S11330A0012221463120EB68FEF768FF08BB0123AB
S11330B0CDE90033234695E80700FFF781FE082396
S11330C00AAA009307CA2346FFF72BFE0C2300939A
S11330D096E807002346FFF7F4FD0A230DAA0093A0
S11330E007CA2346FFF71DFEFEF764FF002818BF3A
S11330F0032006B070BD0120FBE70720F9E706288E
S113310008D804280AD8013803288CBF00200120DD
S113311080017047C31F58425841F9E78020704727
S113312070B58AB007AC84E80E0003AD064694E897
S1133130070085E80B00012302930EAB01930323E0
S11331400093304694E80E00FFF7A0F80AB070BD73
S113315000F061B882B02DE9F0438BB005AE86E88B
S11331600700079D1F4615F0804513938046DDE94F
S113317014328946169C16D18C4228BF0C46D200C4
S113318016D584B10F2C1AD8A9EB0502042A3B6882
S113319028BF042208EB050009A90435099300F0AF
S11331A042F8AC42F0D80BB0BDE8F04302B070472F
S11331B09C4228BF1C46002CF5D00F2C13D9DDE906
S11331C014018DE803000294139B96E80700FEF7B0
S11331D007FFFEF733FFFEF73BFF0BB0BDE8F043FC
S11331E002B0FEF749BF224639460BB0BDE8F043B2
S11331F002B000F018B80139024410B5904201D170
S1133200002005E0037811F8014FA34201D0181BF8
S113321010BD0130F2E702440346934200D17047E7
S113322003F8011BF9E70A44431E914200D1704799
S113323010B511F8014B914203F8014FF9D110BDBB
S1133240F8B500BFF8BC08BC9E467047F8B500BF8F
S1133250F8BC08BC9E46704700000000152500001D
S113326000000000352500000D0A4765636B6F20E0
S1133270426F6F746C6F616465722076582E595971
S11332802E5A5A0D0A312E2075706C6F61642067B6
S1133290626C0D0A322E2072756E0D0A332E206573
S11332A0626C20696E666F0D0A424C203E20000D50
S11332B00A4661696C656420746F20626F6F740DD7
S11332C00A000D0A66696C65206572726F7220309F
S11332D078000D0A626C6F636B206572726F7220E6
S11332E03078000D0A53657269616C2075706C6FDB
S11332F061642061626F727465640D0A000D0A5383
S1133300657269616C2075706C6F616420636F6DA8
S1133310706C6574650D0A000D0A626567696E203C
S113332075706C6F61640D0A00B814B6F1E0CFF3E8
S1133330ADB7DD25C9FA79B71300000013B779FAE0
S1133340C925DDB7ADF3CFE0F1B614B80102000032
S1133350000000006036000040000000010005028B
S11333600000000000000000000000000000000059
S11333700000000000000000000000000000000049
S113338000000000000000000000000007B0CD5E57
S11333900200000001000502643600000060000025
S11333A000000800F0041000EF250000F3250000E1
S11333B095070000132600004326000000000000CB
S11333C073260000E9260000000000001109000037
S11333D0E92500000400000700000D1013001A2066
S11333E02630384050000000EB17A603020100000D
S11333F003000000FA0606FA0F04000003000000B0
S1133400F40A0AF40505000001000000EB17A65EAB
S11334100A06000001000000F50909F50307000091
S113342001000000F60808F606080000000000008D
S1133430FE0101FE0808000000000000FD0303FD7A
S11334400C08000000000000F90707F9100900004B
S113345002000000F30B0BF3110A0000030000004C
S1133460F70A0AF7120B000003000000FC0404FC36
S11334700D0C0000030000008000000000000000AC
S11334800000000000000000000000000000000038
S11334900000000000000000000000000000000028
S11334A00000000000000000000000000000000018
S11334B000000000000000006A09E667BB67AE85F3
S11334C03C6EF372A54FF53A510E527F9B05688C02
S11334D01F83D9AB5BE0CD190000000000000000A1
S11334E00000004000010000000200000004000091
S11334F00008000000100000002000000040000050
S11335000080000000000100000000000100000035
S113351024350000C000000000000000000010007E
S113352020000000FFFFFFFF00000001000000007A
S11335300000000000000000FFFFFFFFFFFFFFFF8F
S1133540FFFFFFFFFFFFFFFF00000000FFFFFFFF83
S1133550FFFFFFFFBCE6FAADA7179E84F3B9CAC20A
S1133560FC6325516B17D1F2E12C4247F8BCE6E528
S113357063A440F277037D812DEB33A0F4A1394598
S1133580D898C2964FE342E2FE1A7F9B8EE7EB4A3D
S11335907C0F9E162BCE33576B315ECECBB6406874
S11335A037BF51F5FFFFFFFF0000000100000000DE
S11335B00000000000000000FFFFFFFFFFFFFFFF0F
S11335C0FFFFFFFC5AC635D8AA3A93E7B3EBBD55C3
S11335D0769886BC651D06B0CC53B0F63BCE3C3E17
S11335E027D2604B1014202040402010141C20309F
S10735F04020000073
S10F35F400360000041300201800000042
S1133600F00F10030000000002110020130000005E
S11336100900000000010000020200001300000085
S1133620F00F10030000000002120020130000003D
S1133630090000000002000001010000D3FFFFFFA9
S1133640F07F103082100020000000000000000015
S11336500000064028000000ED010000C501000044
S9030141BA
