S015000062745F736F635F4E475F44656D6F2E7333378D
S214012000C00A002089420100FD3A0300FD3A0300A0
S214012010ED4F0300FD3A0300FD3A0300FD3A0300CD
S214012020FD3A0300FD3A0300FD3A0300FD3A0300C2
S214012030FD3A03008CFB0300E9510300FD3A03005F
S214012040FD3A0300FD3A0300FD3A0300FD3A0300A2
S214012050FD3A0300FD3A0300FD3A0300FD3A030092
S214012060FD3A0300FD3A0300FD3A0300FD3A030082
S2140120705DA60100FD3A0300FD3A0300A9390100FF
S21401208039380300FD3A0300FD3A0300FD3A030028
S214012090FD3A0300BD4B0100FD3A0300FD3A030083
S2140120A0FD3A0300854D0100614D0100FD3A030034
S2140120B0FD3A0300750D0300FD3A0300BD1703004A
S2140120C037E5030033E50300AD0F030043E50300E6
S2140120D03BE50300911703003FE50300FD170300EE
S2140120E05DF0020021F202006D180300FD3A0300C4
S2140120F0FD3A0300FD3A0300FD3A0300FD3A0300F2
S214012100FD3A0300FD3A0300FD3A0300FD3A0300E1
S214012110FD3A0300FD3A0300FD3A0300FD3A0300D1
S214012120FD3A0300FD3A0300FD3A0300FD3A0300C1
S214012130FD3A0300FD3A0300FD3A0300FD3A0300B1
S21401214082B030BF074BD3F8F030DB0704D500234D
S2140121500193019B052B01DD02B07047019B013302
S214012160F6E700BF00ED00E0F0B5114A114C124E43
S21401217000F00105E3695F0713D40DB9334213D1AB
S21401218003EA00078F4207D10B4A1A40002A0CBF08
S21401219000206FF00100F0BD013AEBD16FF00200B4
S2140121A0F9E74FF0FF30F6E76FF00100F3E700BF05
S2140121B08096980000000350020001000B4B70B59A
S2140121C0D96911F480310DD101244FF48072084E83
S2140121D0084DF46020462C641A61FFF7C5FF34648D
S2140121E0EC6070BD6FF00100FBE700BF000003501C
S2140121F000100350002003504FF4003238B50F4B47
S2140122000F4C9A6641F671330122E569E3630D4B83
S2140122100021DA60022360612120236105F4803504
S214012220FFF7A2FF10B92120FFF79EFF0122064B00
S214012230DA600DB10023E36338BD00BF00900050A3
S21401224000000350001003500020035070B5134CDB
S2140122506061E3695B071ED40E4656F8043B8D1891
S214012260A361AE420BD10423002121202361FFF795
S2140122707BFF58B9BDE870402120FFF775BF0821E4
S2140122800846FFF771FF10B10423236170BD56F8AD
S214012290043BA361E5E74FF0FF30F7E7000003508A
S2140122A02DE9F84315464FF40032184B89469A66D5
S2140122B041F6713203F51C33DF69DA630122064603
S2140122C003F58053DFF84C8007F48037DA6055B9A0
S2140122D0284601220E4BDA601FB10022A3F50053F7
S2140122E0DA63BDE8F88306F5005404EA0804A41B83
S2140122F0AC4228BF2C46494622463046FFF7A6FF89
S2140123000028E6D12644A1442D1BE0E700900050AA
S20C0123100020035000E0FFFF6E
S214012320013800D0FCE770472DE9F04F93B0CDE9B6
S2140123300A32DDE91C530E9353EC102BCDE908014C
S214012340104619468DED060B1E9E1FF037FF80B115
S214012350DDE906014FF0FF32C54B1FF057FF40B9CC
S214012360DDE906014FF0FF326FF480131FF030FFF6
S21401237070B1DDE908019DED060B0E9B1E96CDE9B9
S2140123801C53DDE90A3213B0BDE8F04F00F088B9FE
S2140123900022DDE9060100231FF01AFF002800F0E5
S2140123A03381DDE906A303F1004BCBF30A5016F4A3
S2140123B08063A0F2FF3008BF06250F931FF02CFCA8
S2140123C09BA3D3E900231FF091FC9BA3D3E9002331
S2140123D01FF0D6FACBF31304894644F07F518046AA
S2140123E00022A44B504641F440111FF0C7FA94A3B3
S2140123F0D3E900231FF07AFC02460B4640464946C5
S2140124001FF0BEFA1FF00CFF04461FF005FC8EA35A
S214012410D3E90023804689461FF068FC0022964BCC
S2140124201FF0AEFA1FF0FCFE89A3D3E9002307468E
S214012430494640461FF05AFC8046384689461FF0FA
S214012440EBFB85A3D3E900231FF050FC02460B46A5
S214012450404649461FF092FA02460B46CDE90C2348
S2140124601FF044FCDDE90C238046894610461946D8
S2140124701FF086FA0022CDE91001804B40464946FE
S2140124801FF05EFD00227E4B1FF07AFA02460B46D5
S214012490404649461FF054FD00227A4B1FF070FA61
S2140124A002460B46404649461FF04AFDDDE90C232D
S2140124B08046894600204FF080411FF05FFA0246B1
S2140124C00B46404649461FF05BFA02460B46DDE9DD
S2140124D010011FF035FD07F2FF3700226A4B1FF08F
S2140124E04FFA00223B051FF001FC52465B46804630
S2140124F089461FF08BFE002840F08980CDE90C89C3
S21401250004F16303C72B34BF0427052731051BD508
S21401251053A3D3E90023504659461FF06DFE002809
S2140125207FD051A3D3E90023504659461FF050FEF1
S214012530002876D00027A542C6BF2C1B04F1FF3524
S21401254000253C4646F480660E9B9F422CBF4FF00A
S2140125500008A3EB070816F0020903D0002F18BFE6
S2140125604FF000083CB1DDE90C23504659461FF0F8
S214012570E7FC82468B46DDE90601002200231FF0B8
S21401258027FE10B10BF100439B46DDE9080126F456
S2140125900063CDE90183DDE90A324BEC10AB00950F
S2140125A000F07EF802465FB3DDE9091316F0200F4E
S2140125B000F10105089E0CBF65204520B047DDE906
S2140125C008010523002205930A23002CCDE90232D7
S2140125D007F1FF374FEAD473B8BF64422A46019326
S2140125E004970A9B009424F025FA0246B9F1000FDD
S2140125F006D00B9BC41A0B9B1A190E9BA34245D8F7
S214012600104613B0BDE8F08FDDE906ABCDE600223B
S214012610404649461A4B1FF093FC013CCDE90C019C
S2140126206EE7002D90D00F9B002B8DD0013D8BE7E0
S214012630FB799F501344D33FB3C8608B288AC63FAB
S21401264061436F63A787D23F71A379094F930A400D
S2140126501655B5BBB16B0240EF39FAFE422EE63F86
S2140126602D431CEBE2361A3F0000000080842E4109
S214012670FFFFEF7F0000F83F0000E03F00002C4026
S21401268000002440000018400000F03F2020DDE953
S2140126900913089DA8470134ADE700BF00000000FC
S2140126A02DE9F04F5BEC10AB97B0CDE90501DDE904
S2140126B02057CDE90723504652465B465946229E8F
S2140126C01FF07CFD70B90323CDE902760193B04B70
S2140126D00093DDE90501DDE9072324F0CBF817B007
S2140126E0BDE8F08F4FF0FF326FF480135046594625
S2140126F01FF06EFD28B10423CDE902760193A54BA8
S214012700E6E74FF0FF3250465946A34B1FF07EFDD9
S21401271068B1A24A06F00403002B08BF0322A04BAF
S2140127201CBF13460422CDE902760192D0E750463B
S21401273093A3D3E9002359461FF068FD38B992A345
S214012740D3E90023504659461FF042FD68B1DDE942
S2140127500723DDE905014BEC10ABCDE92176209589
S21401276017B0BDE8F04FFFF7DFBD0022002350464B
S21401277059461FF02DFD002800F09A805B46524610
S214012780002000211FF0FAF8012382468B460993A8
S21401279016F4806400F08E80092D40F28E800024AD
S2140127A030210EABA5F109020134202C03F8011BE0
S2140127B0A5EB040901D09442F6D1594650461FF0C4
S2140127C02FFD784B054603EBC90393ED007B8DED9A
S2140127D00A7B1FF021FA02460B46504659461FF067
S2140127E0CDF8DDE90A231FF081FA02460B46CDE952
S2140127F00C231FF03DFD80461FF0FEF902460B46F6
S214012800DDE90C011FF0BAF802460B46CDE90C23B0
S2140128100022654B1FF0FAFC002851D008F1010890
S21401282040461FF0E9F902460B46DDE90A011FF0B2
S214012830D9FC10B14FF000080135B9F1000F50D1A5
S21401284028461FF0E9F902460B46504659461FF046
S21401285095F80022544B804689461FF0B9FC30B1EA
S214012860002240464946504B1FF0D0FC10B1E80705
S21401287000D501350A210EAB1A19202C0AD095FB7A
S214012880F1F001FB1055303502F8015B01340546C5
S2140128900028F2D106F00302012A57D1002F55D0A5
S2140128A0099A12B916F00C0F00D0013F302245E00C
S2140128B009906DE74FF006097FE7A94600247CE7FB
S2140128C00022DDE90C01384B1FF082FC0028B4D150
S2140128D0B8F1000F02D018F0010FAED008F10108D0
S2140128E0ABE70A210EAB2344202C0ED0B8FBF1F047
S2140128F001FB1082B8F1090F02F1300209F1FF392C
S21401290004F1010403F8012B11D83021A1440EAAC9
S214012910202CAFD0A14504F101030AD11C4609F1D0
S21401292058030DEB03092E2309F8203CA2E7804645
S214012930DAE7A1541C46EBE71A550134A74205D93C
S214012940202CF9D1CDE902760194C1E6202CF9D0EC
S214012950099A3AB12D2104F158026A4402F8201C62
S2140129600134EFE7710704D504F158022B216A44BC
S214012970F4E73207E6D504F1580220216A44EDE770
S2140129800000000065CDCD410000000065CDCDC141
S2140129903101040035010400FFFFEF7F2801040028
S2140129A02D010400400104000000E03F000000008B
S2140129B0002370B5404C05468AB0E36318B1008821
S2140129C023600EF0AFF83D482BF0F3F83C4E3D4B3C
S2140129D0304633603C4B736027F0D8FB002130460D
S2140129E018F0B4FA32A3D3E90023A062C4E906239F
S2140129F027F0D7FBD4E9062319431043C4E906019F
S214012A00CDE900014FF0FF334FF0FF32A06A2BF003
S214012A1058F902224FF0FF31A06A2BF057F9012036
S214012A200DF000FE4FF4007300222849A06A2BF037
S214012A30A0F9B0F5007F38D100239422CDE9073301
S214012A4009933C23CDE9033205939623A06A03A993
S214012A50069318F063FB35B3287C0EF063FA05463F
S214012A60F0B9A06A2BF065FA0EF00AFA0DF0BCFD7B
S214012A7020B14FF4807000210BF02CFE0DF0C4FD48
S214012A8020B14FF4006000210BF024FE27F043FC38
S214012A90012018F0B1FA0E4A0E49A06A27F074FB1D
S214012AA028460AB070BDFF20D7E70725F8E700BF24
S214012AB00DD5015520000000300B0020690345ECC0
S214012AC0B4210020A9040200C4210020B41F002064
S214012AD031A1030071A103000348044B834202D0D5
S214012AE0034B03B118477047342F0020342F0020C2
S214012AF000000000064B0749C91A891048BF01317A
S214012B00491003D0044B0BB101481847704700BF6A
S214012B10342F0020342F00200000000010B5064C92
S214012B20237843B9FFF7D8FF044B13B10448AFF33A
S214012B3000800123237010BD5429002000000000EE
S214012B40A845040008B5054B1BB105490548AFF378
S214012B500080BDE80840FFF7CDBF00BF00000000C1
S214012B60980D0020A8450400A3F5803A704700BFE1
S214012B70174B002B08BF134B9D46FFF7F5FF0021AF
S214012B808B460F461348144A121A2BF06FFD0E4B54
S214012B90002B00D098470D4B002B00D09847002003
S214012BA0002104000D000D48002802D00C48AFF3A8
S214012BB000801FF093FF2000290020F0CAFD1FF0BF
S214012BC007FD00BF00000800000000000000000034
S214012BD0C00A0020C00A0020842A0020000000004D
S214012BE000000000002337B5694601A8CDE900338F
S214012BF001F0DEF8112853D1032001F0E9F8344C36
S214012C0058B13449206821F08DFF20F080FE20F075
S214012C107FFE3149206821F085FF3049206821F088
S214012C2081FF2F4B1B780BB12E4B00930320009C8A
S214012C3001F0CEF8D0B1264D2649286821F072FF62
S214012C4020F065FE20F064FE07EE904A9FED267A9E
S214012C50F8EEE77AC7EE877A17EE900A1EF0EEFFD7
S214012C6002460B462868214921F05CFF204B0022D2
S214012C700099187820F029FE80B1022001F0A8F80A
S214012C8060B1134C1B49206821F04CFF20F03FFE39
S214012C9020F03EFE1849206821F044FF03B030BD05
S214012CA00028BED0022001F093F80028B9D0084CC5
S214012CB01049206821F036FF20F029FE20F028FE7A
S214012CC0DDE900320D49206821F02CFFA9E700BF9D
S214012CD05C110020F0F10300F5F1030033F403006A
S214012CE055290020E0B1FFFF00007A4455F20300A9
S214012CF05629002032F203006BF2030037F203007C
S214012D0010B5032001F064F860B1144C1449206832
S214012D1021F008FF20F0FBFD20F0FAFD11492068A4
S214012D2021F000FF01F030F8B0B1022001F050F8B8
S214012D300A4C58B10C49206821F0F4FE20F0E7FD5A
S214012D4020F0E6FD0949206821F0ECFE20680849DC
S214012D50BDE8104021F0E6BE10BD00BF5C110020AA
S214012D60F0F103009EF2030032F20300BEF203000C
S214012D7033F4030070B50368A94A23F47F4323F0B4
S214012D800703934204468AB000F011810AD8A2F5DF
S214012D901022934221D002F5A022934200F06A81CC
S214012DA00AB070BD9F4A934200F0A08102F1017201
S214012DB09342F5D1B0F805301E2BF1D1C379012B22
S214012DC0EED120F0A4FD20F0A3FD974B974918689B
S214012DD00AB0BDE8704021F0A5BE032000F0F8FF60
S214012DE090B1914D9249286821F09CFE20F08FFD0C
S214012DF020F08EFD63898F49019323890093E38830
S214012E00A288286821F08EFE0DF11F0108A811F096
S214012E1085F8054610B3844C8749206821F082FE68
S214012E208649206821F07EFE20F071FD20F070FDBD
S214012E30834B844A009384497623206821F072FEEE
S214012E4082492B46824A206821F06CFE284601F012
S214012E5005F88049206821F065FEFEE7032000F0B2
S214012E60B7FF20B3704C7249206821F05BFE20F05A
S214012E704EFD20F04DFD9DF820309DF81F00049377
S214012E809DF82130744903939DF82230734A0293CA
S214012E909DF82330002818BF0A4601939DF8243078
S214012EA06F49009320689DF8253021F03BFE6D4E5A
S214012EB0304610F01FFF054610B35B4C5E49206894
S214012EC021F030FE5D49206821F02CFE20F01FFD28
S214012ED020F01EFD5A4B5B4A00935B498323206812
S214012EE021F020FE59492B46594A206821F01AFE46
S214012EF0284600F0B3FF5749206821F013FEFEE78D
S214012F000221307810F030FF044610B3464D4A498E
S214012F10286821F007FE4949286821F003FE20F0C1
S214012F20F6FC20F0F5FC464B464A009346498823BA
S214012F30286821F0F7FD45492346454A286821F0CF
S214012F40F1FD204600F08AFF4249286821F0EAFD9B
S214012F50FEE7A022009003461146307810F0E2FE0C
S214012F60054600283FF41CAF2F4C3349206821F05A
S214012F70D9FD3249206821F0D5FD20F0C8FC20F0AB
S214012F80C7FC2F4B2F4A00932F499123206821F02D
S214012F90C9FD2E492B462E4A206821F0C3FD28463E
S214012FA000F05CFF2B49206821F0BCFDFEE7B0F87D
S214012FB005001B287FF4F4AE0DF11F0300930122D8
S214012FC0002108AB10F01EFF044658B920F09FFC04
S214012FD020F09EFC144B9DF81F202349186821F011
S214012FE0A1FDDDE6012000F0F3FE00283FF4D8AE97
S214012FF00D4D1E49286821F095FD20F088FC20F033
S21401300087FC2346124A1149286821F08BFD204689
S21401301000F024FF1649286821F084FDC0E600BFB1
S214013020A0000A00A00006015C110020B9F303000D
S214013030F0F103001AF3030033F4030041F3030035
S214013040AFF4030046F303004FF303005EF30300FF
S2140130505BF3030073F30300FEF203000CF30300BB
S21401306084F303000E2F002030F40300E3F3030083
S214013070BBFE0300032000F0ABFE60B1564D57497E
S214013080286821F04FFD20F042FC20F041FC544915
S214013090286821F047FD0121207B10F08DFE0546B2
S2140130A000283FF47DAE4C4C4E49206821F03AFD95
S2140130B04D49206821F036FD20F029FC20F028FC3F
S2140130C04A4B4B4A00934B49CE23206821F02AFDF8
S2140130D049492B46494A206821F024FD284600F03C
S2140130E0BDFE4749206821F01DFDFEE7032000F0E4
S2140130F06FFE60B1384C3949206821F013FD20F08D
S21401310006FC20F005FC3F49206821F00BFD3E4CF3
S2140131100221207810F028FE054610B32E4C3149C6
S214013120206821F0FFFC3049206821F0FBFC20F0EC
S214013130EEFB20F0EDFB2D4B2D4A00932D49DB23B2
S214013140206821F0EFFC2C492B462C4A206821F000
S214013150E9FC284600F082FE2949206821F0E2FCBD
S214013160FEE70221207810F013FE054610B31A4C34
S2140131701C49206821F0D6FC1B49206821F0D2FCAE
S21401318020F0C5FB20F0C4FB184B194A00931949DF
S214013190E023206821F0C6FC17492B46174A206811
S2140131A021F0C0FC284600F059FE1549206821F0A0
S2140131B0B9FCFEE7032000F00BFE00283FF4F0AD5B
S2140131C0054C0649206821F0ADFC20F0A0FB20F05C
S2140131D09FFB0E492068FBE55C110020F0F103001F
S2140131E0E8F3030033F4030041F30300AFF40300F4
S2140131F046F303004FF303005EF303005BF30300A3
S21401320073F30300FBF303000E2F00200EF40300FC
S21401321037B5154800F060FE054610B3134C144947
S214013220206821F07FFC1349206821F07BFC20F008
S2140132306EFB20F06DFB104B104A00931049FD23E6
S214013240206821F06FFC0F492B460F4A206821F0B9
S21401325069FC284600F002FE0C49206821F062FC59
S214013260FEE703B030BD00BFB00D00205C110020AA
S21401327033F4030041F3030094F4030046F3030020
S2140132804FF303005EF303005BF3030073F30300E5
S214013290204B37B51870002935D001234FF47A71C9
S2140132A000931D4A00231D4800F034FE044618B35F
S2140132B01B4D1C49286821F035FC1B49286821F064
S2140132C031FC20F024FB20F023FB184B184A009316
S2140132D018494FF48A73286821F024FC16492346BE
S2140132E0164A286821F01EFC204600F0B7FD144956
S2140132F0286821F017FCFEE70146084803B0BDE840
S2140133003040FFF76FBC054803B0BDE8304000F021
S214013310E3BD00BF56290020E52B0100B00D0020BB
S2140133205C11002033F4030041F303005DF4030055
S21401333046F303004FF303005EF303005BF3030061
S21401334073F3030010B5044620F03BFC012805D1B9
S214013350054B9C4204BF054B187004E0204620F044
S21401336030FC0028F4D010BDA4F903005529002034
S21401337030B58BB00DF11F0108A810F0CFFD054642
S21401338018B3274C2749206821F0CCFB2649206832
S21401339021F0C8FB20F0BBFA20F0BAFA234B244AEE
S2140133A00093244940F26913206821F0BBFB2249AF
S2140133B02B46224A206821F0B5FB284600F04EFD38
S2140133C01F49206821F0AEFBFEE7032000F000FD58
S2140133D020B3134C1B49206821F0A4FB20F097FA78
S2140133E020F096FA9DF820309DF81F0004939DF872
S2140133F02130154903939DF82230144A02939DF813
S2140134002330002818BF0A4601939DF8243010493E
S214013410009320689DF8253021F084FB0BB030BD69
S2140134205C11002033F4030041F3030057F403005A
S21401343046F303004FF303005EF303005BF3030060
S21401344073F30300F0F10300FEF203000CF3030034
S21401345084F3030037B5204B0221187810F098FC4E
S214013460054618B31D4C1E49206821F05BFB1D491B
S214013470206821F057FB20F04AFA20F049FA1A4B4F
S2140134801A4A00931A4940F27D13206821F04AFB3C
S21401349018492B46184A206821F044FB284600F0BC
S2140134A0DDFC1649206821F03DFBFEE7032000F015
S2140134B08FFC78B1094C1249206821F033FB20F0CB
S2140134C026FA20F025FA0F49206803B0BDE83040FF
S2140134D021F028BB03B030BD0E2F00205C11002068
S2140134E033F4030041F3030051F4030046F30300F1
S2140134F04FF303005EF303005BF3030073F3030073
S214013500F0F103000EF4030013B5D0E9023253F8CC
S2140135102230124C1B88ADF8063020F0F8F920F066
S214013520F7F9BDF806200E49206821F0FBFA0222C1
S21401353000211E200DF1060310F096FC02211E202C
S2140135400DF1060210F0D4FC28B9BDF80620054995
S214013550206821F0E7FA02B010BD00BF5C11002020
S21401356023F4030035F4030030B503687C4A23F4E2
S2140135707F4323F00703934289B040F0EE80082290
S21401358000211220774B10F06FFC044610B3764DE5
S2140135907649286821F0C6FA7549286821F0C2FAEA
S2140135A020F0B5F920F0B4F9724B734A00937349D1
S2140135B05C23286821F0B6FA71492346714A2868C7
S2140135C021F0B0FA204600F049FC6F49286821F046
S2140135D0A9FAFEE70146032214206C4B10F044FCC6
S2140135E0044610B3604D6149286821F09BFA604992
S2140135F0286821F097FA20F08AF920F089F95D4BC6
S2140136005D4A00935D496A23286821F08BFA5C497C
S21401361023465C4A286821F085FA204600F01EFC05
S2140136205949286821F07EFAFEE701460522162050
S214013630574B10F019FC054610B34B4C4B4920680C
S21401364021F070FA4A49206821F06CFA20F05FF9FF
S21401365020F05EF9474B484A009348497823206892
S21401366021F060FA46492B46464A206821F05AFA6C
S214013670284600F0F3FB4449206821F053FAFEE7A0
S2140136800DF10F0104A810F049FC044610B3364DA5
S2140136903649286821F046FA3549286821F042FA69
S2140136A020F035F920F034F9324B334A0093334990
S2140136B08323286821F036FA31492346314A28689F
S2140136C021F030FA204600F0C9FB2F49286821F086
S2140136D029FAFEE7BDF8143001465BBAADF818309A
S2140136E09DF8133008228DF81A30FF238DF81B3011
S2140136F0FE238DF81C309DF8123018208DF81D30F1
S214013700BDF810305BBAADF81E3006AB10F0ACFB5E
S214013710054610B3144C1549206821F003FA1449E4
S214013720206821F0FFF920F0F2F820F0F1F8114BB3
S214013730114A009311499323206821F0F3F91049A7
S2140137402B46104A206821F0EDF9284600F086FB4A
S2140137500D49206821F0E6F9FEE709B030BD00BF4B
S214013760A0000100BEF403005C11002033F4030046
S21401377041F30300F9F40300C7F403004FF3030019
S2140137805EF303005BF3030073F30300EFF403003F
S214013790F3F4030030B50A4C0A4B22680A4D1A604E
S2140137A00A4B85B02B600A4B019305F0EDF82B68A8
S2140137B0029001A92068039320F087FD05B030BD73
S2140137C0682C0020401C00203C1C00205C2C0020A3
S2140137D071F90300014B186820F08BBD682C00209E
S2140137E038B505F0D1F80446064D2B68D3F8B0027B
S2140137F005F0BEF8286820F08FFD2046BDE8384069
S21401380005F0B6B8682C002008B502F0BBFE01280A
S2140138100ED1124B04205A6E4FF4802310495203E6
S21401382058BF104A4B6601F51041086258BF5366EF
S21401383005F01EF800F06AFC21F035F905F008F8ED
S21401384021F0CCF805F016FB00F050FC00F0F2FD7C
S21401385001F0AAFABDE8084005F026BF0080005036
S2140138600090005000A0005008B5044821F0C2F8AE
S214013870BDE80840024800F00DBF00BF14FF03007A
S2140138806C2C002030B5224D95B00DAC0FCD0FC479
S21401389095E80700032384E807008DF84D302923B7
S2140138A01C4A1D49CDE902231C4B0E22CDE9041307
S2140138B04FF4807300210DF1260006932AF0D6FE00
S2140138C04FF4A020164B07A9CDE907030F238DF867
S2140138D0243010238DF82530124B0DAA0A9320238D
S2140138E00B9301238DF831300F4B1048009302AB38
S2140138F005F0FEF904469DF832304FF4E130002B16
S2140139000CBF0321002120F061F8204615B030BD20
S21401391088F90300000006500005000600080007AD
S2140139202400065057290020A4100020F81000207B
S214013930831E012B10B512D8012922D8114B04225F
S2140139401B6905210020C3F3401302F065FA0E4BF4
S2140139501B681868A8B1BDE81040436A18478B1E5B
S214013960012B0CD801280CD8BDE810400022054BCD
S21401397005211B691046C3F3401302F04DBA012915
S214013980E5D910BD00C00350842C002008B50449B9
S214013990044805F05DFFBDE80840FFF773BF00BFB0
S2140139A0882C00201C110020014821F054BA00BFC9
S2140139B0F8100020014B1A6A18681047F81000200A
S2140139C0014820F0F9B800BFA4F9030030B5036838
S2140139D0524A23F47F4323F007039342044685B0FB
S2140139E063D002F10172934265D04D4A934260D191
S2140139F001220225002126200DF10D038DF80D5020
S214013A00ADF80E2010F030FA044610B3454D464985
S214013A10286821F087F84549286821F083F81FF0C7
S214013A2076FF1FF075FF424B424A009342499E23A0
S214013A30286821F077F841492346414A286821F051
S214013A4071F8204600F00AFA3E49286821F06AF823
S214013A50FEE72A4601460DF10E032B2010F004FA6C
S214013A60054630B32F4C3049206821F05BF82F49CA
S214013A70206821F057F81FF04AFF1FF049FF2C4B32
S214013A802C4A00932C49A423206821F04BF82B499B
S214013A902B462B4A206821F045F8284600F0DEF92F
S214013AA02849206821F03EF8FEE781798088FFF7F3
S214013AB0AFFB05B030BDB0F80530232BF9D1C37983
S214013AC0012B05D101890079C9B2FFF7E1FBF0E7C7
S214013AD0022B03D100791FF012FFEAE7114D1249BC
S214013AE0286821F01FF81149286821F01BF81FF0FB
S214013AF00EFF1FF00DFF144B0E4A00930E4985234F
S214013B00286821F00FF8114A1149286821F00AF8AF
S214013B10E2791049286821F005F8FEE7A0000601C1
S214013B20A00001005C11002033F4030041F3030000
S214013B309BFA0300BCF903004FF303005EF3030096
S214013B405BF3030073F30300B3FA030030FA0300D8
S214013B5036FA03004EFA0300184B37B583422AD1D2
S214013B60174B1B783BB3C8B210F03AF9054610B3B1
S214013B70144C1549206820F0D5FF1449206820F020
S214013B80D1FF1FF0C4FE1FF0C3FE114B114A009374
S214013B9011498523206820F0C5FF10492B46104A9D
S214013BA0206820F0BFFF284600F058F90D4920682C
S214013BB020F0B8FFFEE703B030BD00BF241100209F
S214013BC0772900205C11002033F4030041F3030041
S214013BD038FB0300C5FA03004FF303005EF303004E
S214013BE05BF3030073F3030030B500250368584AFE
S214013BF023F47F4323F0070385B0934204460295DE
S214013C00ADF80C507ED002F5802293420ED0A2F180
S214013C108272934240F09A804E4B1B78002B00F044
S214013C20958005B0BDE8304021F0DCBAB0F805302B
S214013C30302B40F08B80FF2304A91A4611E90300BC
S214013C401FF05EFE012814BF41F2FC15414B05F042
S214013C50FC0208BF18703021207910F01BF90546C8
S214013C6010B33D4C3D49206820F05CFF3C4920687C
S214013C7020F058FF1FF04BFE1FF04AFE394B3A4A20
S214013C8000933A495923206820F04CFF38492B46C7
S214013C90384A206820F046FF284600F0DFF836490B
S214013CA0206820F03FFFFEE7344900902379344A2C
S214013CB00968344800F02EF90546002846D0264CFF
S214013CC02649206820F02EFF2549206820F02AFF8B
S214013CD01FF01DFE1FF01CFE224B234A00932349B2
S214013CE06223206820F01EFF21492B46214A2068C6
S214013CF020F018FF284600F0B1F81F49206820F090
S214013D0011FFFEE7B0F80530B7EE047A07EE903AF9
S214013D10F8EE677AB0F8073067EE877A013307EE78
S214013D20103AB8EEC77A67EE877AB1EE047A67EE94
S214013D30877AFAFE677AFCEEE77A17EE903AB3F5E1
S214013D407A7F38BF4FF47A730C4A136005B030BDE2
S214013D50A0000602772900205C11002033F403003E
S214013D6041F3030047FB0300C5FA03004FF30300CA
S214013D705EF303005BF3030073F30300902C002053
S214013D80593B01002411002008B501201FF0D5FD84
S214013D90054B402118681FF09AFEB0FA80F3034ADB
S214013DA05B09137008BD00BF802C00207829002015
S214013DB00B4605490246097821B1044840210068AE
S214013DC01FF03BBE1120704778290020802C002070
S214013DD00B4B02461B7883B10A4B1B78834234BFD8
S214013DE000200120084B1B7833B1084B1B78134188
S214013DF013F0010F08BF002070470120F2E700BF53
S214013E00112F0020102F0020792900200F2F0020CD
S214013E10012208B5074B1A700022074B1A700422BC
S214013E20064B1A701F22064B1A7004F0ADFD054BA7
S214013E30186008BD112F002079290020102F0020BE
S214013E400F2F00205C110020024B0349186820F058
S214013E5069BE00BF5C11002067FB030070B50C4C07
S214013E600C490646206820F05DFE04F08DFD0546EF
S214013E70206804F07DFD3046FFF7E6FF284604F093
S214013E8077FD20680449BDE8704020F04BBE00BFB6
S214013E905C11002069FB03006BFB030038B5054687
S214013EA01FF047FE00230B4A14685CB1AC4206D1F2
S214013EB0A96A6BB199621FF042FE012007E0234612
S214013EC0A46AF2E7002DF3D01FF039FE204638BD74
S214013ED01160F0E76011002010B50446B0B106F09D
S214013EE021F92046FFF7DAFF10B194F82C300BB910
S214013EF0002010BD064C2368002BF9D01FF019FED8
S214013F002368013B23601FF01AFEF1E72220F0E749
S214013F10641100202DE9F04385B005469146984688
S214013F200E469DF8307009B9002F5CD12846FFF780
S214013F30D3FF0446002836D185F82C00686306F0C6
S214013F402DFA864233D906F09BF92146844640F283
S214013F50E7304FF47A720023E6FB0C011EF0A8F955
S214013F604FF0FF3200231EF0A3F92B46E8861146D8
S214013F702846CDE900441D4A21F0BCF8044690B914
S214013F80C5E9089885F82D702E631FF0D2FD184AF2
S214013F90136833B31A469B6A002BFBD19562002344
S214013FA0AB621FF0CCFD204605B0BDE8F08347B1FB
S214013FB02B4631462846CDE900440C4A06F0B2F9B4
S214013FC0DCE7304603A906F08FF904460028EAD15B
S214013FD02B462846CDE90077044A039921F066F876
S214013FE0CCE71560DBE72124DDE700BFF53F0100E4
S214013FF06011002091F82C3013B50C4683B98B8ED6
S214014000CA8E93420ED243B9CDE9003320460B4601
S214014010124A4FF0FF3121F02DF8A38E0133A3860B
S21401402002B010BD52B191F82D3093B10123009327
S214014030D1E908232046096BFFF76CFF012384F8BA
S2140140402C30074B1A6801321EBF1A6801321A60FB
S214014050E6E7084606F066F8F0E700BFF53F010020
S214014060641100202DE9F041154E336833B34FF04B
S2140140700008144F1FF05DFD05463C6824B928462C
S214014080BDE8F0411FF05BBD94F82C30A3B1336856
S21401409084F82C8013B13368013B336094F82D30DB
S2140140A013B92046FFF7FAFE28461FF048FDD4E96B
S2140140B0083120469847DDE7A46ADFE7BDE8F081CE
S2140140C06411002060110020034B1B68002B14BFF5
S2140140D004200120704700BF64110020024B1868BD
S2140140E0B0FA80F0400970476411002008B5064810
S2140140F020F080FC1FF064FB01201FF01EFCBDE8D1
S214014100084000F01DB800BF14FF0300014820F06E
S21401411071BC00BF14FF030007B508201FF0C4FDE3
S21401412002238DF80030054B684601931FF012FC00
S214014130082003B05DF804EB1FF0C1BD006A18103B
S2140141402DE9F04F434D89B001AC0FCD0FC495E872
S21401415007000125DFF80C9184E807003E4820F0AF
S21401416049FCDFF80481484620F044FC3B4B4046BE
S21401417001A903938DF8125002F0F0FA2B4604229F
S2140141800021022001F048FE2A462946002302208B
S21401419001F042FE02212B460846042201F03CFEB5
S2140141A004222B461146002001F036FE4FF0021382
S2140141B02B4C0226C4F83036A3F58033C4F82C36CF
S2140141C01C231027C4F8346604F5005BC4F81C36BB
S2140141D04FF4487006F080FA04F5805A1420CBF8A4
S2140141E0107006F079FA2320CAF8107006F074FAF7
S2140141F0B9214046CBF810701FF006FF0023304669
S2140142001A461946CAF8107001F006FE0023294620
S2140142101A46304601F000FE2B4631463046002253
S21401422001F0FAFD00222B461046042101F0F4FDB0
S214014230404602F0E9F900234846C4F83036C4F88F
S2140142402C36C4F83436C4F81C3620F0D6FB09B038
S214014250BDE8F08F70FB030014FF030000127A0024
S21401426000C0035004FF030000C005500348044A81
S2140142700449121A92101FF042BC00BF40210100EF
S21401428018230100842A002008B500F02FF8FFF754
S214014290EDFF124B12498B4212D30020114B1249EB
S2140142A08B4218D3FEF764FC186850F82240586811
S2140142B040F82240013298688242F5D30C33EAE78F
S2140142C00022F8E71C6844F8220001325C68A2422A
S2140142D0F8D30833E4E70022F8E700BFB04504004E
S2140142E0BC450400BC450400BC4504004FF4004135
S2140142F0134B144A70B59A60D3F88820124D42F4D5
S2140143007002C3F88820114A05F5005491664FF0F3
S214014310FF3222664FF6DF7262660222C3F8D020B1
S214014320BFF34F8FBFF36F8F4FF44036032004F077
S214014330FDFA0320E66004F0DDFA2E6170BD00BFD1
S21401434000ED00E0002001000080004400900050D5
S214014350014B1868704700BF982C0020014B18606D
S214014360704700BF982C0020084B1B6F03F0070313
S214014370022B04D0032B05D0012B05D0FEE7044BFE
S21401438018687047034BFBE70348704700800050EE
S214014390982C0020A02C0020002D310108B5FFF735
S2140143A0E3FF054B1B6FC3F303330133B0FBF3F09D
S2140143B0024B186008BD00BF00800050942C0020FE
S2140143C00048704700B4C404014B1868704700BF2A
S2140143D0A02C0020054B1860054B1B6F03F007034C
S2140143E0032B01D1FFF7DABF704700BFA02C0020D6
S2140143F00080005000487047002D3101014B1868BD
S214014400704700BF9C2C002000239B6AB3F5903FA9
S21401441003D21968064A914203D0002303708360D1
S2140144207047012202709A689B694260F7E700BFF5
S21401443007B0CD5E00239B6A10B5B3F5903F11D24D
S21401444019680A4A91420DD1094C227812F0FD0FE3
S21401445001D0002010BDDB6998470028FAD101235E
S2140144602370F6E74FF48170F4E700BF07B0CD5E26
S2140144707A2900204FF00053014A1A6004F016BA58
S21401448002020FF0034B5868C0F30800003818BF4B
S2140144900120704700ED00E070B5D0B1C9B10E4EF5
S2140144A0431E013913F8014F2046325D02F0030224
S2140144B0012A11F8012F08BF04F12000B55C05F0B0
S2140144C00305012D08BF2032801A01D1002CE9D145
S2140144D070BD0120FCE700BF3B430400F7B504684C
S2140144E00546264820F086FA0023012261792079C4
S2140144F001F092FC14233021227911FB023101F1E3
S214014500A04101F5703109686379D940C943A3799F
S21401451001F00101022B217017D11FF0F6FB184A9A
S2140145202B466179207900F0B1FBFF2802466079BD
S2140145300ED12A46124900F0E1FB012302466179B9
S2140145402079CDE9003301F00DFC002003B0F0BD69
S21401455001262779002301460096384601F0C4FC5F
S2140145602A460749607900F0C9FB002361790246B3
S2140145702079009301963346E5E700BF14FF030058
S214014580CD3B030013B500242948019420F032FAEC
S214014590012304220321204601F03EFC20461FF0A1
S2140145A001FD0122234B0520C3F8442401A920F074
S2140145B017FA002839D1204BD3F8F02042F0010237
S2140145C0C3F8F020D3F8FC2042F08072C3F8FC2038
S2140145D01A4AA3F55D431A60019B194A03F5D523D0
S2140145E003F2FC43B3FBF2F3164A013B13610223C9
S2140145F0C2F8F0304FF48073C2F804334FF06043D2
S214014600114AC3F8B02F114AC3F8802ED3F8002EF2
S21401461042F48072C3F8002EFF2283F82020D3F8DC
S214014620002E22F48072C3F8002E02B010BD00BF27
S21401463014FF030000D0035000ED00E0FF0300402C
S214014640F8590D00000004E055CEACC50900010084
S2140146504FF06043D3F8802E30B5D20715D501242C
S2140146600B4D8440D5F8FC2042F08072C5F8FC2042
S214014670D3F8002E2243C3F8002E53F82020002A38
S214014680F0D003F82010002030BD1120FCE700BF59
S21401469000ED00E02DE9F0430368314A04469342F9
S2140146A085B059D02F4A934253D101262E4820F087
S2140146B0A1F901230A22A179207901F0ADFB01239A
S2140146C00A22E179607901F0A7FB0A274FF0010879
S2140146D0264D4FF0300942F210012379A27909FBE9
S2140146E0035308FA02F25A50642005F0F5FF41F22E
S2140146F010012379A27909FB035308FA02F2642018
S2140147005A5005F0E9FF013FE3D10322360106F1D5
S214014710A04303F57033C3F89024A1792279354478
S21401472042EA0142C3F89424E2796379694643EA8E
S2140147300243C5F8983440F20113ADF80030E3683F
S21401474020680293A3680193237C8DF80C3001F056
S21401475027FC05B0BDE8F08300260548A7E700BFA3
S2140147600000015A008006500CFF030000C00350F1
S21401477010FF030038B5054601F04EFD044C012834
S21401478001D1013C00D138BD284601F02BFCF6E7EB
S214014790E19304002DE9F04F9A46564B85B01B78FD
S2140147A006460F461546DDF83C909DF844B0DDF808
S2140147B05080002B00F09780072A00F296800E9B0F
S2140147C0002B00F09280B9F1000F00F08E80129B52
S2140147D0B3F5006F00F38980012803D1109B002BED
S2140147E000F08380444B03EB05131B7B002B7ED02C
S2140147F0424C10220021684629F038FF04EB45148C
S2140148001022A7BB3946204629F030FF43F2100399
S2140148106380BBF1000F03D1E37843F00303E37039
S214014820364A0E9B02EB451CCCE90193129B6901AB
S214014830581E9DF84C30C0F30A0003F003039B0694
S21401484043EA001E53582E48012E00EA03004EEAA2
S2140148500003CDF800A0535017D0B8F1000F2ED1A9
S2140148609CF8023068F304138CF8023027E000212C
S214014870204629F0FBFE4FF444736380BBF1000F22
S214014880CED1E37843F03003C9E713230CF1100EC1
S214014890CCF80C309CE80F008EE80F006FF0030197
S2140148A0DCF81C20109B61F39F02012FCCF81C2022
S2140148B0CCF8143003D1CCF81890CCF8043000278B
S2140148C00D4A290102EB051342F80180159A284684
S2140148D05A60694622469F605E7301F035FD384690
S2140148E005B0BDE8F08F0748FAE70748F8E707483C
S2140148F0F6E700BF7B29002068120020681100201F
S2140149000F80FFF3028000F0018000F0078000F0C6
S21401491038B5124B05461B78DBB1E0B11FF009F93B
S2140149200F4A00231146147B54B92B6001251A0146
S21401493001EB03131D738C501FF001F9204638BD9F
S2140149400133082B02F11002EDD11FF0F8F80548EB
S214014950F5E70548F3E70548F1E700BF7B290020A6
S21401496068120020048000F0028000F0018000F050
S21401497038B51FF0DEF8002305460B4A147B6CB9E8
S2140149800133082B02F11002F8D101F089FC074B24
S21401499028461C701FF0D3F8204603E028461FF077
S2140149A0CEF8034838BD00BF681200207B290020DE
S2140149B0058000F00D4B10B51B78044693B107280F
S2140149C012D81FF0B6F80A4B03EB04131A7B2AB170
S2140149D000241C731FF0B3F8204610BD1FF0AFF87B
S2140149E00448FAE70448F8E70448F6E77B2900207C
S2140149F068120020068000F0028000F0018000F0BE
S214014A00154B13B51868002301908DF804301FF07C
S214014A1090F8124B1C7824B11FF091F8104802B0A0
S214014A2010BD01221A701FF08AF80E4B01A81C73E4
S214014A301C7783F82C4083F83C4083F84C4083F87D
S214014A405C4083F86C4083F87C4008238DF807307F
S214014A5001F04AFC2046E2E7DCFB03007B2900204C
S214014A60038000F0681200200A4A08B512785AB18D
S214014A7007280BD8084A02EB00131B7B43B1002121
S214014A8001F024FC002008BD0448FCE70448FAE7CE
S214014A900448F8E77B29002068120020028000F015
S214014AA0018000F0078000F00A4A08B512785AB172
S214014AB007280BD8084A02EB00131B7B43B10121E0
S214014AC001F004FC002008BD0448FCE70448FAE7AE
S214014AD00448F8E77B29002068120020028000F0D5
S214014AE0018000F0078000F00A4A08B5127852B13A
S214014AF007280AD8084A02EB00131B7B3BB101F0DA
S214014B006FFC002008BD0548FCE70548FAE70548A4
S214014B10F8E700BF7B29002068120020028000F021
S214014B20018000F0078000F00D4B1B7893B1072839
S214014B3012D889B10B4B03EB00131B7B73B10A4BE5
S214014B401A6D01238340134214BF01230023002062
S214014B500B70704705487047054870470548704711
S214014B607B2900206812002000000450028000F01B
S214014B70018000F0078000F00B4A10B512780C4651
S214014B8062B107280CD859B1084A02EB00131B7B07
S214014B9043B101F037FC2070002010BD0448FCE74B
S214014BA00448FAE70448F8E77B2900206812002049
S214014BB0028000F0018000F0078000F0184B2DE91C
S214014BC0F0411F6D5B6D1F4000D5FEE701260025F5
S214014BD0144CDFF85880374218D02368C8F8506064
S214014BE0A3B1A168284601316268A1609847637B3A
S214014BF0012B0BD150B90C4B03EB45131A7B60F319
S214014C0041021A731A7F60F341021A770135082DA3
S214014C104FEA460604F11004DDD1BDE8F08100BF7D
S214014C200000045068120020681100200020045083
S214014C3070B5044601250B4E04B970BD94FAA4F074
S214014C40B0FA80F005FA00F306EB001224EA03043A
S214014C505368002BF0D0117B11B191689847EBE7B0
S214014C609847E9E7E812002038B505460C461EF0DD
S214014C7060FF0022044B03EB05135C601A73BDE86A
S214014C8038401EF05CBF00BFE8120020F8B50446AD
S214014C900D4617461E461EF04CFF1CB9052D18D0B2
S214014CA0FF241FE0012C05D1012D1FD0032DF7D1C4
S214014CB004240EE0022C07D1052D19D0072D19D09A
S214014CC0002DEDD1062404E0032CE9D1022DE7D115
S214014CD00924094904F1100301EB03110123C1E979
S214014CE001760B731EF02BFF2046F8BD0324F0E778
S214014CF00724EEE70824ECE7E8120020F8B505469D
S214014D000E4617461EF015FF134B2C46D3F82424E7
S214014D1005F0FC0122FA05F3DB0712D50023013367
S214014D20DBB2042B04D1FF241EF009FF2046F8BD98
S214014D30EC1804F003040C4422FA04FC1CF0010FE6
S214014D40EDD1FF2CF0D00122044B03EB0413C3E991
S214014D5001671A73E8E700BF00C00350E81200209D
S214014D60074BD3F82404D3F8202403F5005310404E
S214014D7000F0553020F05020C3F82004FFF758BF4C
S214014D8000C00350074BD3F82404D3F8202403F5BE
S214014D900053104000F0AA3020F0A020C3F82004F1
S214014DA0FFF746BF00C00350024B1968024B186854
S214014DB015F0D8BCA42C0020C42C002070B594009B
S214014DC0224605460E462AF007FA431C0AD058B971
S214014DD022463146284629F01FFC0028034808BF12
S214014DE0002070BD0248FCE70248FAE710E000F038
S214014DF021E000F024E000F010B504462AF0F0F9B6
S214014E00431C10D088B901F0C5FB234620F00300EF
S214014E102044984201D1002010BD53F8042B0132E2
S214014E20F7D00348F8E70348F6E70348F4E700BF7E
S214014E300EE000F021E000F024E000F008B51EF0DE
S214014E4071FE014B186008BDD81B0020014B186885
S214014E501EF06CBED81B0020044BD3F88420D2066B
S214014E60FBD4D3F88400C0F3811070470040005093
S214014E702E4B98424AD022D82D4B984240D014D877
S214014E802C4B984239D00AD82B4B984232D02B4B18
S214014E9098422FD02A4B98422CD000207047294B9D
S214014EA09842FAD1284B186F7047284B98422AD05F
S214014EB0274B9842F1D1244BD3F880007047254BFD
S214014EC098422BD009D8244B984223D0234B9842A2
S214014ED0E3D11D4BD3F88C007047214B984221D06B
S214014EE003F5740303F510539842D6D1164BD3F845
S214014EF098007047144B986D7047134B586E704767
S214014F00114B586F7047104B986F70470E4BD3F884
S214014F10840070470C4BD3F8880070470A4BD3F8CF
S214014F2090007047084BD3F8940070470048E8019A
S214014F300024F400C0CF6A0080841E0000093D00F2
S214014F4040420F00405DC6000080E00FC0EA21012C
S214014F5080BA8C01007E560380D54302006CDC02C9
S214014F600090D00338B5104B0546D3F820310C46D7
S214014F7003F00303022B0BD0032B0DD0012B0FD113
S214014F80FFF7E6F9052305B1286004B1236038BDB3
S214014F90FFF71AFA0323F6E7FFF72CFA0223F2E7E4
S214014FA001230020EFE700BF0080005073B50D46D7
S214014FB000210E4B0191D3F88041064604F003040C
S214014FC0012C09D0022C0CD00C460EB1019B33608B
S214014FD005B12C6002B070BD01A8FFF7C3FF0F2416
S214014FE0F3E7FFF707FA0190EFE700BF00800050F4
S214014FF038B5184B0546D3F824010C4600F00700D7
S214015000062823D8DFE800F0040A121A1E0E16003E
S214015010012305B1286004B1236038BDFFF798F974
S2140150200523F6E7FFF794F90623F2E7FFF7CCF935
S2140150300323EEE7FFF7C8F90423EAE7FFF7DAF9F7
S2140150400223E6E71EF066FD0723E2E70023184683
S214015050DFE700BF0080005038B5104B0546D3F897
S21401506040310C4603F00303022B0BD0032B0DD06B
S214015070012B0FD11EF050FD092305B1286004B1A4
S214015080236038BDFFF7BAF90823F6E71EF047FD9F
S2140150900B23F2E701230020EFE700BF008000505A
S2140150A038B5144B0546D3F800020C4600F007004D
S2140150B004281BD8DFE800F003090D1115000123B1
S2140150C005B1286004B1236038BD1EF025FD092313
S2140150D0F6E7FFF793F90823F2E71EF020FD0B230E
S2140150E0EEE7FFF75BF90E23800AE9E7002318468F
S2140150F0E6E700BF0080005038B5104B0546D3F8F0
S21401510040320C4603F00303022B0BD0032B0DD0C9
S214015110012B0FD11EF000FD092305B1286004B153
S214015120236038BDFFF76AF90823F6E71EF0F7FC9F
S2140151300B23F2E700231846EFE700BF008000507C
S21401514038B5104B0546D3F860310C4603F003031F
S214015150022B0BD0032B0DD0012B0FD11EF0DCFC44
S214015160092305B1286004B1236038BDFFF746F96D
S2140151700823F6E71EF0D3FC0B23F2E701230020F9
S214015180EFE700BF0080005010B40D4C0B46D4F87A
S214015190204204F00304012C0AD0022C0CD008B1E2
S2140151A0002101600BB100221A605DF8044B7047C4
S2140151B05DF8044BFFF7D6BE5DF8044BFFF74CBF16
S2140151C00080005038B50C4605461EF0ABFC054B7A
S2140151D09A6A54402C4054409C62BDE838401EF008
S2140151E0A5BC00BF00C00050B0F5207F1FD009D875
S2140151F0B0F5007F15D003D868B1B0F5C07F0AD0EE
S21401520000200CE0B0F5607FFAD10B4BD3F880009C
S214015210C0F3011003E0084B186FC0F303300130F0
S2140152207047054BD3F89000C0F30460F7E7024BD4
S214015230186FC0F38020F2E7008000504FF4003270
S2140152400E4B014610B500209A66FFF7CDFF484386
S21401525041F671320A490B4B884294BF0020012067
S214015260DC69DA639A6822F4401242EA00529A60D4
S214015270E20344BF0022DA6310BD00BF0090005075
S214015280005A620200000350420910B50FD0012AED
S2140152900FD00A4B0A4C022A18BF234600F01F0003
S2140152A049B103F58053012282401A6010BD1346AE
S2140152B0F4E7044BF2E703F50053F4E76880005087
S2140152C0608200506480005008B580201EF072FD98
S2140152D0034B98429EBF4FF48032024B1A6708BDBB
S2140152E0005A620200A000501FB50023B0F5807F6F
S2140152F0019377D028D8382800F094800BD824382A
S214015300092810D809280ED8DFE800F06767676714
S2140153100D0D620D377D52285FD008D83D283BD051
S2140153203E2800F08480019805B05DF804FB8028D3
S214015330F9D1414B1B6F03F00703013B032BF2D856
S214015340DFE803F044413F6CB0F5D06F5BD019D86D
S214015350B0F5A06F66D00AD8B0F5806F3DD0B0F535
S214015360906FE0D1002001A9FFF742FEDBE7B0F520
S214015370B06F2DD0B0F5C06FD5D1002001A9FFF7D1
S2140153806BFED0E7B0F5006FECD00AD8B0F5E06F51
S2140153904DD0B0F5F06FC6D1002001A9FFF7D0FEC1
S2140153A0C1E7B0F5086FBED1234BD3F8003103F047
S2140153B00303022B2CD0032B2ED0012B30D1FFF769
S2140153C003F8032300E005230193ACE70223FBE780
S2140153D0002001A9FFF7EAFDA5E7002001A9FFF7D4
S2140153E0C1FDA0E702934FF0E0231B695B0705D5DB
S2140153F0FEF7D4FF0C230393039BE5E703A902A85A
S214015400FFF72AFEF8E7002001A9FFF749FE8AE721
S214015410FEF7F4FF0823D7E71EF07CFB0723D3E74C
S2140154200123D1E7002001A9FFF7AEFE7BE70020AC
S21401543001A9FFF761FE76E7008000504FF4803245
S214015440074B0849586E03F580535A660B6A23F0DA
S21401545001030B62C3035CBF034B5A66704700BF70
S2140154600080005000C0075000A0005008B5FFF7AC
S2140154703BFF082811D00938012802D94FF6FF70E2
S21401548008BD4FF40012064B5A6603F5D8335B6A23
S214015490DB07F3D54FF4FA70F2E7024B1888EFE713
S2140154A000900050FC2E002008B5FFF71DFF0328D2
S2140154B00ABF024B4FF6FF70188808BDFA2E00206F
S2140154C0F8B504468020FFF70FFF032800F0878019
S2140154D04FF40022424B02215A6645F60E03414A1A
S2140154E0C2F88030404B9962012103F580539962DE
S2140154F0936DD903FCD4D4E900131B0543EA016379
S214015500E17B94F820500B43217BE77E43EA01437D
S214015510617B6D0143EA0133A17B43EA8113136189
S2140155209169D4E904031B0643EA806301F0004154
S2140155300B43A17E94F823000B43217E43EA0143EB
S214015540617E43EA01239361136AE66923F00D0342
S21401555094F8221043EA8703002E2DD11362966A2F
S21401556094F8213045EA031326F033052B4343F024
S214015570010393621D4D1B4B9A6D35EA0202FBD166
S2140155800222194DAA621A659A6D5200FCD41A6954
S214015590A56822F4700242EA05521A614FF00042F1
S2140155A0114B9A6119B9022203F580539A6278B9B0
S2140155B001220F4B9A620BE0334343F00803136258
S2140155C0936A23F0330303432B4343EA4103936275
S2140155D094F824301BB1034B064AC3F88020F8BD6B
S2140155E00090005000C0005000D000500300014061
S2140155F000E00050F1A7FFFF1E4BFF2870B59E6A22
S21401560035D89A6D12F4803F18BF01211A4A18BF87
S2140156109162022191629B6DDC0303D5154A936D5D
S2140156209907FCD50222144B124D1A65AC6D14F085
S2140156308044FBD1114AAB6992F9002023F47F0321
S214015640024423F47F4382F3080243EA002343EA39
S2140156500243AB6131460220FFF7B4FDAB6DDB03BD
S21401566003D531460120FFF7ADFD204670BD21244C
S214015670FBE700BF00C0005000D000507C2900208E
S214015680014B93F9000070477C2900200122154840
S214015690154B816A9A62826D02F00302032AFAD1DF
S2140156A002229A621A650F4A936D5B00FCD40F487A
S2140156B0936D30EA0303FBD101220B4B1A65A3F568
S2140156C080539A6D9007FCD49A6D9207FCD50222FE
S2140156D0054B1A65034A936D9B07FCD50320FFF71C
S2140156E071BD00BF00C0005000D000500300010093
S2140156F0F0B5D0E901434FF480061A4A417805789F
S21401570056664FF4D156022702F5B8325662164E47
S2140157104F2977604FF0010728BF4F2106F58056C5
S21401572077601669F603FCD441EA052151611B0135
S214015730417B43EA04230B43017B43EA4103936025
S214015740C37B817B1B0143EA4113417C0B43017CF4
S21401575043EA41035360837C13B16FF4D153536220
S214015760F0BD00BF0090005000100250014B1880A1
S214015770704700BFFC2E0020014B1880704700BF09
S214015780FA2E00204FF4001208B5184B5A66022371
S214015790174A5360936813F48033FBD1012822D152
S2140157A0FEF712FE134B984215D003F5122303F5AC
S2140157B0F863984213D0104B00EB8002400AB3FB0B
S2140157C0F0F3520A0A49CA620B6301234B620022B4
S2140157D0074B5A6008BD45F67A13084AF2E745F6C4
S2140157E01A03074AEEE75362F1E700BF0090005044
S2140157F00040025000F0490264666666D8B80500AB
S214015800BBCF0500B0F5207F10B50C4642D008D8B6
S214015810B0F5007F33D003D888B1B0F5C07F0ED085
S21401582010BDB0F5607FFBD11F4A4C1ED2F8803008
S21401583023F0300343EA0413C2F88030F0E71EF089
S214015840B1FA1EF07BFB4FF48031184B164A1967EC
S214015850136F013C23F4704343EA04331367FEF7E6
S2140158609DFD0446FFF7F8FAC0F1020120461EF03E
S2140158705FFB00F02DF8BDE81040FFF725BD0A4A92
S2140158804C1ED2F8903023F0F85343EA0463C2F872
S2140158909030C5E7044A4C1E136F23F4806343EA35
S2140158A084231367BCE700BF0080005000900050BF
S2140158B008B50121022000F05DF91EF073FA1EF012
S2140158C03DFB4FF48032014B1A6708BD0090005033
S2140158D008B54FF4C0701EF06DFABDE808400449E3
S2140158E0884294BF012102214FF42070FFF78ABF3E
S2140158F080F0FA024FF4C02270B50546FFF7B8FAF9
S214015900314B04465A6603F598335A68012A04D186
S2140159102E494A609A699207FCD18020FFF7E4FC81
S214015920052807D11EF03EFA1EF008FB4FF4803220
S214015930254B1A67264B24F040749D4230D0254BE8
S2140159409D4230D0FEF704FD8542064603D901216B
S214015950284600F04FF9204BDA6812F0060FFBD10B
S21401596099689C609A68624012F4F81F1ED1284616
S214015970FEF7F4FC8020FFF7B7FC05280DD1FEF7F3
S2140159800DFD0446FFF768FAC0F1020120461EF03D
S214015990CFFAFFF79DFFFFF797FCAE420CD270BD22
S2140159A044F00074CEE744F08074CBE78020996021
S2140159B0FFF79AFC052805D0BDE8704001210020BC
S2140159C000F018B93546DAE70090005000E00150C3
S2140159D040420F0080841E000000015010B5224B8B
S2140159E070B94FF40031214A1860516602F59832B9
S2140159F05268012A03D11E4AD2F800211A6010BD4E
S214015A001B68002BFBD01B4A5268012AF7D0184AA4
S214015A108020C2F80031FFF767FC05281FD14FF43C
S214015A20C070FFF7E1FB0128044604D102214FF4C0
S214015A30C070FFF7E7FE07220F4B1A610122A3F59C
S214015A4080535A600B4A1369DB07FCD5012CD6D16B
S214015A502146BDE810404FF4C070FFF7D3BE0122C7
S214015A60064B5A60CBE700BFDC1B002000900050BD
S214015A700080005000C0015000E0015000D00150ED
S214015A80044A4178536F23F4407343EA0123536772
S214015A90704700BF0040005010B5044610B100200A
S214015AA0FFF79CFF124A136943F00403136104F0E5
S214015AB00BF91EF05FFA0F4B5B6E5B0142BF0E4B9C
S214015AC00E4AC3F820241EF02DF829F08DFB1EF097
S214015AD02DF81EF050FA04F01FF91CB9BDE810406D
S214015AE0FEF75CBC0120BDE81040FFF777BF00BFA2
S214015AF000ED00E00080005000E003500000FF0FC2
S214015B0010B5044610B10020FFF768FF104A13696C
S214015B1043F0040313610F4B5B6E5B0142BF0E4BF8
S214015B200E4AC3F8202404F0CFF81DF0FBFF29F03D
S214015B305BFB1DF0FBFF04F0EFF81CB9BDE810405D
S214015B40FEF72CBC0120BDE81040FFF747BF00BFA1
S214015B5000ED00E00080005000E003500000FF0F61
S214015B60034A0179D36E23F030030B43D3667047A3
S214015B7000400050F8B504461C4BD3F88420D106EB
S214015B80FBD4D3F88430C3F381139C422CD0FEF7A8
S214015B90EBFB012C064602D121461EF0C9F91DF089
S214015BA0C1FF4FF00072124B07465A6620461EF0A0
S214015BB0E9F94FF480630D4D621E93402B676B6EBF
S214015BC09A0103D4D5F884309B060AD538461DF0D1
S214015BD0ADFF022C08D13046BDE8F84000211EF08A
S214015BE0A7B9D5F88430EAE7F8BD00BF00400050F9
S214015BF00060005010B50C4608B9FEF7B5FB074B20
S214015C0021461B783BB1064B984204D80120BDE8DB
S214015C101040FFF7AFBF0220F9E700BF7D29002043
S214015C20005A62020278034B012100201A70FFF726
S214015C30E1BF00BF7D2900204FF0004238B5264B5A
S214015C4026495A6601224A604AF6CD3103F50B23EE
S214015C505D6C1964154030BB9968C9070BD40024E4
S214015C6001221F4B5A6015B11E4B1F4A1A6428F0B9
S214015C7040F8204638BD1A498A601C4AD96ACC07C2
S214015C8005D4904201D10724EAE70130F6E79042B5
S214015C90E5D1F8E70132DC6A14F0080406D08A423E
S214015CA0F8D10724DFE700221049F4E78A42F8D04A
S214015CB020220B4B0B495A620122A3F580539A60AE
S214015CC023460A4A486A800603D49342E9D0013340
S214015CD0F8E79342C7D1E4E700900050005009501E
S214015CE000600950004009503254FFFF40420F0047
S214015CF04FF0004238B5174B174C5A66012203F590
S214015D000C235A604AF6CD33656C2364437893407E
S214015D101343124AD363C3788178A2689B0043EA8F
S214015D20011322F074021343A3600279837943EAD4
S214015D30022323614279C37943EA0223636100782F
S214015D40FFF77AFFEB0744BF054B236427F0D1FF2B
S214015D50012038BD0090005000400950004000501E
S214015D603254FFFF072A2DE9F041154698464FF0B9
S214015D70030401F003072DD89600B44000FA06F29A
S214015D8021461C481EF0FFF821461B4807FA06F27A
S214015D901EF0F9F8194B1A499DF81800B8F1000FD2
S214015DA018BF1946012303FA05F50D60154B164970
S214015DB0002818BF0B461D60144B9DF81C00C3F845
S214015DC02054103103F22443002818BF0B461D60EF
S214015DD0BDE8F081A2F10806B600B44000FA06F26A
S214015DE021460B481EF0CFF821460A4807FA06F26C
S214015DF0CEE700BF00C4035008C4035010D40350BC
S214015E0010E4035014E4035014D4035000E003508C
S214015E1004C403500CC40350F8B504460D461F468F
S214015E2016464AB101238B403021184A01FB002255
S214015E30F7B141F21001535004EB4403072D4FF024
S214015E400F014FEA031316D8A80006FA00F28140A4
S214015E500F4818441EF097F84EB9012330210B4A1B
S214015E60AB4001FB042277B141F210015350F8BD5B
S214015E7042F21001DFE7A5F10800800006FA00F201
S214015E8081400448E5E742F21001EFE700C0035005
S214015E9004C003500CC00350104B0140D3F830240B
S214015EA022EA0002C3F83024D3F830241143C3F8A1
S214015EB03014D3F82C240243C3F82C24084AD36E9A
S214015EC003F03003202B1FBFD36E23F0300343F0C3
S214015ED01003D366034BC3F82004704700C0035079
S214015EE00040005000E0035038B514461D4603221A
S214015EF083F00103FFF790FF012004F110018840B1
S214015F0005FA01F1FFF7C8FF9DF81010034B044A8C
S214015F10002918BF1346186038BD00BF24E403509B
S214015F2024D40350F8B505460E4614465AB303F07A
S214015F300307836823F4407383601DF0F3FDAA68AA
S214015F4082EA072303F440735340AB601DF0EEFD75
S214015F5036B9104B9D4217D12E201DF02BFF064659
S214015F60AB680D4BDA5D62430DD0A2EBC403013B77
S214015F703344B3FBF2F3AA68013B920702D5002B28
S214015F8008BF0123AB61F8BD044B9D42E8D12F2029
S214015F90E3E700BF0000015A01FC03000080065041
S214015FA038B500230E4A036400F50053DA634A78D5
S214015FB004460D4600F108037AB903F58053022220
S214015FC01A602046D5E901122B7BFFF7ABFF20466E
S214015FD02978BDE838401DF0E6BF03F50053EEE72B
S214015FE0FFFF1F00874B70B5984219D0864B984229
S214015FF040F00581854B9968C26B12F4C06F15D0CD
S21401600091050FD5FD225A7009221A7000220264EA
S21401601093F90110012900D15A7093F9010070BD5E
S2140160207B4BE8E75605EFD5FE22ECE71C78082CFB
S21401603000F2E180DFE814F009001F00450053007C
S21401604070007E009C00A700D6004C880A88E506F2
S2140160500AD5120A02F0060242F0F0020121197076
S2140160604263C1600120DAE702F0FE02A10748BFE1
S21401607042F00102F2E7160608D5802100F500522B
S214016080D1634FF608721A80022318E05506E9D547
S214016090402400F50052D4634A88D40604D502226F
S2140160A01A700B784363DDE796076AD507221A70E4
S2140160B01B7901EBC3031B89012BD3D10823C360D2
S2140160C0D0E71506D9D45406CCD5402400F50052A5
S2140160D0D4634A88920754D503221A708CE74C88F9
S2140160E00A88E60643BF120A02F0060242F0F002F0
S2140160F002F0FE02650709D51C7942F0010201EBA8
S214016100C4010989012904BF0821C160042119704D
S2140161100123C3604263A5E71406AED45206A1D597
S214016120402400F50052D4634A88560729D5072231
S2140161301A7097E71A795D8801EBC2042689AE4288
S2140161400FD800240132D2B21A715C804C886507E0
S214016150C2D4E40702D4012A7FF64EAF08221A7091
S21401616092E76268691C5980525D42630622DFE746
S214016170160682D455067FF575AF402400F5005209
S214016180D4630522A9E794067FF56CAF456A214CD6
S21401619046691A793440B4F5003F04BF466A4FF4A5
S2140161A0005601EBC20100F500540A8908BFE663F8
S2140161B02026E6635C88A24281BF4968661C5E8031
S2140161C00D5559888A42C9D90424012AC46004D0CD
S2140161D0013A914201D10822C2601A78092A3FF495
S2140161E015AF3FE7D2057FF53DAF4FF4807100F55F
S2140161F00052D16308E74FF609321A8006E76FF0BE
S21401620003000CE70000015A00800650EC1B00203A
S214016210E01B0020200002001C4B10B4984207D05F
S2140162201B4B98422ED06FF003005DF8044B70476D
S214016230184B0269D20744BF2022C2604A889407DD
S21401624002D50C89002CEED0520702D50A8A002A04
S214016250E9D04FF480721A60002299601A71C02347
S214016260C3604369DB050FD4202200F50053DA63CF
S214016270094A5DF8044BDA63036C43F4FC63036478
S214016280FFF7B0BE054BD4E7436AEAE70000015AC0
S21401629000800650E01B0020FFFF1F00EC1B0020C3
S2140162A010B5152002F014FB0024FF22064B2146F0
S2140162B05C6520209A625C60FEF7E6FF2146BDE839
S2140162C010402120FEF7E0BF00000450044A054BB1
S2140162D0002908BF1346012282401A60704700BF9A
S2140162E0401004504020045010B5012104462020DF
S2140162F0FEF7CAFF01212120FEF7C6FF0122114B3E
S21401630015205A60227812069A606178A27842EACD
S21401631001429A61FF229A6200229A631A644FF040
S21401632000425A654FF0FF3203F500531A6502F03A
S214016330FDFA1520E17802F007FBBDE810401520B4
S21401634002F0D8BA00000450F8B50125C3B2DFF850
S2140163508CC0D1F800E09D408F7ACB7A0C46097B41
S214016360CCF850500CF5005C4CF820E04FF0300EA5
S214016370184E1B050EFB006094F80DC043EA074358
S21401638043EA415322F00302C0F860C0C3650267C6
S2140163901DF0CFFB104B5D65237A13B1336C2B4395
S2140163A03364637A13B1B36B2B43B3632279A37956
S2140163B043EA0243094A93616179E37943EA014377
S2140163C005498B61034B55639D64BDE8F8401DF09C
S2140163D0B6BB00BF0000045000100450002004505B
S2140163E010B50124C0B284401DF0A3FB044B5A6DC6
S2140163F022EA04025A659C62BDE810401DF09FBB6C
S2140164000000045010B50124C0B284401DF091FB79
S214016410074BDA6A224208D15B6B9C430CBF01240E
S21401642000241DF08CFB204610BD0024F9E700BFB8
S214016430000004504FF40032054B9A6641F6713263
S21401644003F51C33DA63012203F50053DA60704763
S2140164500090005041F671320121064BDA6303F5D4
S2140164600052D1600022DA634FF40032A3F51833EC
S2140164709A66704700000350CB784A7810B55B01E6
S2140164800C7843EA82030A79234343EA02130C2277
S214016490424302F1B0421363012C02BF8A78024BD9
S2140164A043F8202010BD00BFE880035008B54FF028
S2140164B0B0435A686AB958B15B680BB11DF07DFDEF
S2140164C001210D4B59601DF078FD4FF0B043D960A6
S2140164D008BD5B680BB11DF070FD0028F0D11DF002
S2140164E06CFD4FF0B0430222DA601DF066FD01221A
S2140164F0024B5A60ECE700BF00100058002000581D
S2140165004FF0B0414B6810B50BB11DF056FD01229E
S2140165100B4BC4785A608378934043EA84034478EB
S2140165202343047943EA0413447943EAC4038B60A2
S214016530044B5A600378C3F10203CB6010BD00BF61
S21401654000200058001000584FF48032064B5A665F
S21401655003F5E6235B69C3F38512827003F03F02FD
S2140165601B0B42700370704700900050014B0320D4
S2140165705B6870470080E00F014B986CD96C7047E0
S2140165800080E00F024B1868C0F30740704700BF59
S2140165900080E00F0120034B9B680A3303F01F03C2
S2140165A0984070470080E00F70B5054616461C46B9
S2140165B021B94FF420701DF0FDFB0146402C1BD085
S2140165C003D8DCB1202C1BD070BD602CFCD1042379
S2140165D003FB06F2530803EB4113B3FBF2F3094A3C
S2140165E0203B02EAC303AA6822F06002AA60AA68F6
S2140165F01443AC60EB61E7E70623E9E71023E7E71E
S2140166000823E5E7F8FF7F00012200F580535A6072
S21401661040F6AA6341F20502436100230B498360F9
S214016620C365C26000F500520361C361C36491642F
S21401663007498365884203D103650023436502E069
S21401664004498842F8D0012353607047FFFF0100D8
S21401665000C005500000065070B50D46FFF7D4FF88
S214016660012300F580567360AB7C04461BB183683A
S21401667043F080438360EB7C5BB1354A2B7D9442CB
S21401668045D1A2F51032C2F88C31E36D43F0800398
S214016690E3652A8A6B7B20461343EA891343E3604A
S2140166A02B7BD5E90112FFF77FFF6B7D1BB1A3683A
S2140166B043F48033A360AB7D1BB1A36843F400436E
S2140166C0A360EB7D2A7E1B07120502F4E00203F0AD
S2140166D0E0431343A365697E1D4A8B1E012B1D4BA8
S2140166E01FD894421BD002F5804294420CBF01226F
S2140166F04FF0FF3203EB4213022041F21C620329E2
S214016700985020D10423F3652B78636170BD124A3B
S214016710944204BFA2F52032C2F89C31B5E70022AC
S214016720E8E794420DD00C4A94420CBF01224FF088
S214016730FF3203EB4213022042F21C6201299850F9
S214016740DFE70022F5E7042204F50053DA65DBE70C
S21401675000C0055000C003500000065038B50D4675
S214016760FFF752FF012200F580535A602B8A826898
S21401677043F001031343AA7B044643EA8223836062
S21401678083682A7D43EA42738360AB7C5BB11D4A12
S214016790EB7C90422DD1A2F51032C2F88C31E36D1C
S2140167A043F08003E3652B7B2046D5E9011243F4D1
S2140167B08053E3601DF009FC6B7B0BB11023636112
S2140167C06B7D1BB1A36843F48033A360AB7D1BB123
S2140167D0A36843F40043A360EB7D2A7E1B071205E2
S2140167E003F0E04302F4E0021343A3652B786361F0
S2140167F038BD054A904204BFA2F52032C2F89C314A
S214016800CDE700BF00C005500000065038B504466D
S214016810054D27F092FA0FCC0FC594E8030085E8E2
S2140168200300002038BD00BFF81B002047F6FF73A9
S2140168309A42F0B56FD002296FD8394B5B5C012BB9
S2140168406BD8384DDF0005EBC30415F83330A1785B
S214016850012B13D10025E078401AA84202D808443B
S214016860C0B2F0BD431B6668A0EB530336F9136054
S2140168709642D4BF1D4603F1FF30EEE7606800285C
S214016880EFD0B0F90040944204DBB0F902409442E4
S214016890B8BF144683883D44FF2B19BFC8224FF06A
S2140168A0280CB0F90620B0F908C0A2EB04030CBF0F
S2140168B00126002693FBFCF333446E781BB29E42FE
S2140168C001DD002B01DA731E1BB24FF47A7C013313
S2140168D09BB2071D5D1E2DB24FEAC50E00EBC50526
S2140168E0EA88AD689E4214FB025222EAE27202F185
S2140168F05C02B2FBFCF204DD37F8335001339542FB
S214016900E8D200EB0E039888904228BF10468842D2
S21401691038BF0846A4E7FF20A3E70020A1E700BF91
S21401692005FC0300F81B00200229F0B555D82C4BB6
S214016930585C012851D82B4C04EBC00114F83000E8
S2140169404B6801280FD1C8788C78904294BFC4EB6D
S2140169500001C4EB0201001BCAB28242C8BF00227A
S21401696033F91200F0BD002B37D08878904202D35D
S214016970B3F90200F6E7CC78B3F900009442F1D9F6
S2140169804C789988013CA1F1FF06714203F1040598
S214016990E4B2714103F10C07CEB2B44216D805EB4E
S2140169A0C1014FF47A756A43B1F902404968521A37
S2140169B004EBD47102EB610292FBF4F29042D1DB5C
S2140169C0B3F902009042CDDC10B2CBE737F831C004
S2140169D04E1C9445E3D33146DEE70348C2E700BFC9
S2140169E005FC0300F81B00200080FFFF08B50448E3
S2140169F0FFF70CFFBDE80840012027F0A2B900BF51
S214016A0008FC030000487047FE2E00207FB50222D6
S214016A10084B0949CDE901234FF00073CDE9031373
S214016A20052301A94FF0FF30059327F0BEF907B003
S214016A305DF804FB006A18000002040006289ABFED
S214016A40014B185C002070478CFC030030B5154BD9
S214016A5087B00293144B0390049346F611030D4638
S214016A60059300F077F91428044616D168461DF000
S214016A706EFB4FF0A843032202A95A6319601D61F9
S214016A809A63DA6B9207FCD1142C02D168461DF08A
S214016A906CFB00F093F9044601E00028E9D020469B
S214016AA007B030BD101C0020040000202DE9F04F77
S214016AB0B1B005468C469E46E8466F4EDDF8EC9032
S214016AC0409C06F1100A474630687168083603C7CD
S214016AD05645B846F7D13E9B03EB0208C8F1000ABB
S214016AE00AF00F0AB9F1000F00F09D80C9F1000706
S214016AF007F00F070121DDF8FCB044F00050C4F1A7
S214016B001006CDF810B005910690300200F4F8504A
S214016B1040F021000790B9F1000F40F08680CDF8D3
S214016B2020D047F00050002D00F0848009912121EB
S214016B300A9041EA07210B9142F00050CDF830C08F
S214016B403D9B08A94FEA0A2C0D910E904CF041008E
S214016B500F901093002A75D13E9B119143F000537C
S214016B6012933C9B1390149310AB1593434B444ADA
S214016B70169340F611031793424B0021002D08BFD0
S214016B801346189314AB19933F4B10221A931123F3
S214016B901B931CAB184627F069FD01221D920022AB
S214016BA046F0804603461E96239205B9EB46102C06
S214016BB0CDF880B024AE4BD10123224600213046C9
S214016BC02193229427F052FD20AB002125938F427A
S214016BD018BF334647F0804226923A9A2CA828924C
S214016BE02993B2FA82F35B0949EA837310222B9147
S214016BF02A9327F03BFDB9F1000F00D028AED04410
S214016C0048F080432CA918A82D962E93FFF71EFF57
S214016C1030B92DB90346A34225D1002818BF2C2030
S214016C2031B0BDE8F08F102764E7CDF820E049F0D9
S214016C30005078E7002C3FF479AF04A909910121AF
S214016C400A9076E73E9B0CAA11924120129388E7A0
S214016C501022002130462193229427F007FD002CB4
S214016C60B2D10123B1E703F1C0026A4412F8C02C85
S214016C7001331043CFE700BF93FC03001000002050
S214016C80A8FC0300ACFC030004000020F0B5C029FA
S214016C909FB0DDE9244557D0B1F5807F04D0802927
S214016CA048D029201FB0F0BD01265CB140F2344720
S214016CB002941024039604942124019705940695C2
S214016CC002AC0AE040F2144702941024039604949E
S214016CD02124059401240197069507940125102483
S214016CE0089409950A9221220B950C940D92174A45
S214016CF00AAD0E92164A0F95109242F611021192A3
S214016D00129313951494159201AA1692D3B112AB4D
S214016D101793042318931123199316AB1A901B93F8
S214016D2040F61103C9081C911AA806A91D93FFF77E
S214016D308DFEB7E7012614B94FF48267C4E74FF416
S214016D408667B5E70EABE3E70F20ABE7A4FC0300CD
S214016D501000001038B5164B5A6E42F004025A66FF
S214016D60D3F8802242F00102C3F88022114B5B68FF
S214016D70C3F3080343B14FF0A842D36B13F0430F9C
S214016D80FBD11424204638BD4FF0A843DC6B14F029
S214016D904304FBD1084D2B681BB90421284604F097
S214016DA039FA2B68013343F000432B60EAE700BF52
S214016DB00080005000ED00E0101C0020014B002078
S214016DC05B68704700ED00E04FF40052034B002073
S214016DD09A660322C3F86022704700BF00900050F5
S214016DE04FF40052034B00209A660322C3F8602238
S214016DF0704700BF00A00050012300F01F02A0F55D
S214016E0006200949A0F550604009934051F820201A
S214016E101A4341F82020054951F8202022EA0302AE
S214016E2041F82020704700BF281C0020141C0020B9
S214016E300121A0F506230E4AA3F550635B0900F075
S214016E401F00814052F82300014342F823100949EC
S214016E50D1E90030034488680344C86809690344DB
S214016E605B1802BFC2E90033C2E9023313617047FF
S214016E70141C0020281C00202DE9F04FA9B0039215
S214016E801D4604460822339ECDE90401414021FAFD
S214016E9002F34B40980702F1080218BF9B00202A14
S214016EA01C44F4D18123B4FBF3F303EBC313E41ABC
S214016EB0734B04F506241B7804F55064002B3ED171
S214016EC0FDF772FF074620B16FF0910029B0BDE8CB
S214016ED0F08F0146402208A827F0C8FB4022394619
S214016EE018A827F0C3FBDFF8B481DFF8B491C346D6
S214016EF00BF10F0ACDF800A0102208A95B46D9F8BD
S214016F00000026F095FC0022014608F1100808AFA3
S214016F10914246D1CDF800A05B461022D9F8000078
S214016F2018A926F08EFC4FF0000A834618AFD34509
S214016F3041D1544B9845DAD10122514B1A704FF08A
S214016F40810A4FF00008DFF85CB1A4F50627A7F523
S214016F5050635B095BF8232004F01F01CA40D20787
S214016F603DD4494A52F82330CB40DB072AD5B8F145
S214016F70000F08BFA0468123A7F6FF47B7FBF3F330
S214016F8003EBC313FF1A07F50624BAF1010A04F549
S214016F905064DAD1039BBBB1B8F1000F14D044465C
S214016FA019E057F8040BCDE90612FFF725FF079AFB
S214016FB006990132ACE757F8040BFFF739FF0AF1DF
S214016FC0010AB4E7039B13B96FF08B007EE7B8F1B3
S214016FD0000F18BF4446349B00201C6076E7329BA6
S214016FE013B10023329A13600EB1002333601023CD
S214016FF0DFF8AC9000932A4600232146D9F800001A
S21401700013F022FD60BB32992A68204BC9B99A4217
S21401701006D02146D9F8000013F0AEFD0028D3D1E2
S214017020D5E90223DDE90410834208BF8A42A2D1D2
S214017030039B002BCFD06B68012BCCD16FF0840063
S21401704044E7102032999A420860E2D1002EE7D038
S21401705033462146D9F8000018AA13F049FD48B175
S2140170600B4B9842D5D00B4B9842D2D00A4B984244
S214017070D6D029E7329A336812689B1A3360CFE775
S2140170807E29002000710800141C0020105D175E88
S214017090FFDF00F011E000F0FEDF00F0006D0800F9
S2140170A0C42C0020281C00202DE9F04F87B0824612
S2140170B0894698461646DDF840B02AB1002B4FD0D7
S2140170C040F26C739A424ED8BBF1010F4ED80024A1
S2140170D006F110073946012005941DF071FF05469B
S2140170E0002846D021463A4627F0C0FA05ABCDE93E
S2140170F0014300942B46012250464946FFF7BCFE49
S214017100044680B110F18C0F08BF6FF08D043A462B
S2140171100021284627F0AAFA28461DF033FF20460C
S21401712007B0BDE8F08F144BC5E902A92B60C5F87E
S21401713004B02EB13246414605F1100027F0A1FAFF
S214017140059E0E483B462A463146006813F0E4FB8E
S21401715018B93046FFF750FED9E76FF09104D6E72D
S2140171606FF08604DBE76FF09104D8E76FF08504D3
S214017170D5E76FF08C04D2E7105D175EC42C0020B3
S2140171802DE9F0438DB08146DDE914780E461546AB
S2140171901C469BB1B8F1000F05D16FF0860630464C
S2140171A00DB0BDE8F083002FF7D0B7F1005FF4D340
S2140171B0C3F1005303F500439F42EED8102200218D
S2140171C008A827F053FA002207AB029305AB0193F8
S2140171D006AB31460093484608ABCDE90522FFF7DA
S2140171E04BFE06460028DAD1059BA4B1AB4215D862
S2140171F053EA0504D1D1069B0B48C8F80040009419
S2140172003A46079900682B4413F01EFC002818BF65
S2140172106FF09106C3E7AB42EDD2BEE75B1B9C4223
S21401722028BF1C46E7E700BFC42C002030B58DB050
S2140172300C4605461022002108A827F017FA00225E
S21401724007AB029305AB019306AB21460093284694
S21401725008ABCDE90522FFF70FFE0446D8B9099B16
S214017260012B1BD0079D104B2946186813F084FC90
S214017270B8B90122A5F506230C49A3F550635B09AD
S21401728005F01F00824051F823004240284641F88D
S2140172902320FFF7CDFD20460DB030BD6FF08404EE
S2140172A0F9E76FF09104F6E7C42C0020281C0020B3
S2140172B02DE9F04F89B007460E4603F0A9FAC0073C
S2140172C009D4042401201EF060FB80B3013CF9D1EF
S2140172D06FF0920028E0102200210DEB020027F04B
S2140172E0C5F904A803F0F6FA049B002BE9D0059B28
S2140172F0002BE6D0069B002BE3D0079B002BE0D0AB
S2140173000025DFF8808008F10409B54219D34FF44F
S2140173108A7403F077FA00F00E03062B2DD1C3050D
S21401732001D503F0A1FA002009B0BDE8F08F03F003
S21401733069FA10F00E03FAD0022BF8D04105DFD51A
S214017340C4E703F059FAA6EB050A8400544528BFA2
S214017350544699E8030000238DE80300CDE9054370
S21401736007EB050BCDF810B0029404AAD8F800304C
S21401737007CA1EF003FA2544C7E724FA03F3DA071F
S214017380A6D5C6E7B8FC03002DE9F0438BB0174637
S214017390DDE91545DDE913269C46DDE91738894602
S2140173A021B96FF086000BB0BDE8F083002FF8D04E
S2140173B00EB9002CF5D1129909B9002AF1D10DB9EF
S2140173C0002BEED1B8F1000FEBD0244A944541D101
S2140173D00288B2F5105F3DD14288B7EBD20FE0D3F9
S2140173E022F04001802902D0B2F5807FD9D16CB35A
S2140173F0AE421CD23219954219D29C42D1D831469E
S2140174002246284627F018F92E4614F00F03C8D155
S214017410CDE90197CDE90336CDE90543CDE907541A
S2140174200993FFF7D1FC38B16FF09200BBE79C429D
S214017430EBD96FF08900B6E707AA04A901A803F003
S2140174400DFB0546FFF7CCFC0543EDD10020C8F83F
S2140174500040A8E76FF08500A5E700BF00444004A0
S2140174602DE9F04FA9B0834617469A460E46DDF839
S214017470C890DDF8D88029B96FF08603184629B080
S214017480BDE8F08F002AF7D0B9F1000FF4D0349B95
S214017490002BF1D0B8F1000FEED00024424B0CAD1A
S2140174A093E8070085E807003C22214619A81894AE
S2140174B027F0DCF83388728803F4E040B0F5804F9B
S2140174C0DAD03A4E3A480BEA060646F0106686428D
S2140174D063D1B2F5807F60D147F2121293425CD13C
S2140174E00620344ABAF11F0FD3680E940B93136922
S2140174F0126800FB03F3CDE90C23BDD9339B402B67
S214017500BAD9359B1F2B4BD909F1010220261292BD
S214017510402299F800300F97042B18AFCDE91324B9
S214017520CDE91572109611941794A5D1FFF74CFC6E
S21401753003460028A2D10B9B15AACDE9086305AB2B
S21401754007CA83E8070002AB12AA07CA83E8070046
S214017550DDE910018DE803000F9B95E8070003F0B5
S21401756057FB0546FFF73CFC55EA000384D13D4630
S214017570349A20AE2C4603CCB442106051602546A6
S21401758002F10802F6D100221146B9540132402A0E
S214017590FBD12022C8F8002070E76FF085036DE765
S2140175A06FF089036AE700BFC8FF03000000FFF61B
S2140175B000000209DCFF0300F0B50E461D468BB045
S2140175C0002853D0002951D0002A4FD0002B4DD08F
S2140175D0048804F44F43B3F5824F03D06FF085005F
S2140175E00BB0F0BDE3B224F0FF04B4F5E24FB0F8FF
S2140175F002C0F3D1122B01D0172BEFD10CF10701EA
S214017600B2EBD10F4FEAD10733D31D4A04ACBCF518
S214017610807F07CA84E80700E0D1122B07D1194BF7
S2140176201A691B681344CDE904320023069300232C
S214017630CDE907670993FFF7C7FB0028D0D1124AA7
S21401764002AB92E8030083E803000AAB13E90300E8
S2140176508DE80300079B94E807001EF014F8044623
S214017660FFF7BEFB204307D12F60B9E76FF0860016
S214017670B6E76FF08900B3E76FF09200B0E700BF9E
S214017680C8FF0300DCFF0300B0FC03002DE9F04354
S2140176908FB01D46DDE916C600285CD000295AD0F9
S2140176A0002A58D0002B56D0BCF1000F53D0002E24
S2140176B051D0038803F44F44B4F5824F51D1DCB264
S2140176C023F0FF03B3F5824F40884AD0122C01D035
S2140176D0172C46D1C31DB2EBD30F4FEAD3083AD3CA
S2140176E04FEA4802571C674538D8B0F5807F38D135
S2140176F0122C18BF4FF000094FF0000308BF1C4CB6
S214017700CDE9081805F1010114BF4C46D4F80C90D8
S214017710CDE90B120A930D93FFF756FBC0B9CDE9DD
S214017720058902AB08AA07CA83E807000EAB13E96E
S21401773003008DE803000B9B94E807001DF0C2FFD1
S2140177400446FFF74DFB20430ED104232B70376010
S2140177500FB0BDE8F0836FF08600F9E76FF089009F
S214017760F6E76FF08500F3E76FF09200F0E700BFF1
S214017770DCFF03002DE9F04389B00E4615461F468F
S214017780DDF8488020B96FF0860009B0BDE8F083C7
S2140177900029F8D0002AF6D0B8F1000FF3D00388FC
S2140177A003F44F42B2F5824F02D06FF08500ECE74A
S2140177B0DAB2122A01D0172AF7D123F0FF03B3F564
S2140177C0E24F41D14488C8F8004044B9EB00B3F514
S2140177D0807FC8F80030E8D1122A0DD108E0E31DF9
S2140177E0B5EBD30FCFD1B4F5807FDED1122A29D1E4
S2140177F0354B1C681B691C440023194670192C4420
S21401780014F801CD10F8012D1143B2EB0C020CBF98
S2140178104FF0FF3C4FF0000C86420CEA030343EAAC
S2140178200203EDD10029AED0002BACDA109B9D42AD
S21401783046D82A463146384626F023FF119B0020BB
S2140178401D60A2E70024D7E73378042B9BD16B1E7B
S214017850DB005B08B3F5807FC8F80030A5D1122A9B
S21401786006F1010318BF4FF000094FF040020593DF
S2140178704FF000030ABF144C4C46D4F80C90CDE9E7
S2140178800623FFF7A1FA00287FF47FAFCDF80C900E
S214017890D8F800300733DB08029308AB13E903007E
S2140178A08DE80300059B94E807001DF0B8FF044629
S2140178B0FFF796FA00287FF468AF002CB6D062E78F
S2140178C06FF0890061E700BFDCFF03000388B3F5B2
